:020000040800F2
:1000000000280020451E0008851C00088B1C0008E5
:10001000911C0008971C00089D1C000800000000AF
:10002000000000000000000000000000A31C000809
:10003000AF1C000800000000BB1C0008C71C000823
:100040008D1E00088D1E00088D1E00088D1E0008E4
:100050008D1E00088D1E00088D1E00088D1E0008D4
:100060008D1E00088D1E00088D1E00088D1E0008C4
:100070008D1E00088D1E00088D1E00088D1E0008B4
:100080008D1E00088D1E00088D1E00088D1E0008A4
:100090008D1E00088D1E00088D1E00088D1E000894
:1000A0008D1E00088D1E00088D1E00088D1E000884
:1000B000D51C00088D1E0008000000008D1E0008E1
:1000C0008D1E000800000000000000008D1E0008CA
:1000D000000000008D1E00088D1E000800000000BA
:1000E0008D1E00088D1E00088D1E000800000000F7
:1000F0000000000000000000000000000000000000
:0C01000000000000000000005FF808F1A3
:10010C0010B5054C237833B9044B13B10448AFF345
:10011C0000800123237010BD3C0000200000000073
:10012C00E434000808B5034B1BB103490348AFF393
:10013C00008008BD0000000040000020E4340008EE
:10014C0080B483B000AF7860094A7B6852F82330E2
:10015C00012B06D1064A7B68002142F823100123AB
:10016C0000E0002318460C37BD4680BC704700BF2A
:10017C005800002080B483B000AF7860044A7B68DC
:10018C00012142F8231000BF0C37BD4680BC7047DC
:10019C005800002080B483B000AF7860044A7B68BC
:1001AC00012142F8231000BF0C37BD4680BC7047BC
:1001BC006400002080B582B000AF00237B60AEE00D
:1001CC005B4A7B6852F823205A497B6841F823200C
:1001DC00594A7B6852F8232055497B6841F8232003
:1001EC007B68002B0BD14FF40051544802F034F9CA
:1001FC0003461946504A7B6842F823101CE07B6882
:10020C00012B0BD14FF480414C4802F025F90346E9
:10021C001946494A7B6842F823100DE07B68022B93
:10022C000AD14FF40041464802F016F9034619462C
:10023C00414A7B6842F823103E4A7B6852F82320DF
:10024C003B497B6851F823309A425ED1384A7B682F
:10025C0052F8232038497B6851F823309A4254D104
:10026C00384A7B6852F8232033497B6851F8233095
:10027C009A4216D0304A7B6852F8232031497B6869
:10028C0041F823202C4A7B6852F82330002B42D1B2
:10029C002D4A7B68002142F823107868FFF76AFF2B
:1002AC0039E02A4A7B6852F82330012B14D1264AB4
:1002BC007B6852F823305A1C23497B6841F8232071
:1002CC00214A7B6852F82330642B24DD1D4A7B685D
:1002DC00012142F823101EE01B4A7B6852F82330A0
:1002EC005A1C19497B6841F82320174A7B6852F83D
:1002FC002330B3F5967F0EDD7868FFF74BFF114A7C
:10030C007B68012142F8231005E0104A7B6800212C
:10031C0042F8231000E000BF7B6801337B607B68F0
:10032C00022B7FF74DAF00BF00BF0837BD4680BD25
:10033C000C000020000000201800002000100140DC
:10034C00000C0140240000207000002064000020FC
:10035C0080B582B000AF78607B68092B01DD00238B
:10036C007B607B68002B23D100220121C04802F066
:10037C008AF800220221BE4802F085F800220421EE
:10038C00BB4802F080F800220821B94802F07BF843
:10039C0000221021B64802F076F800222021B44841
:1003AC0002F071F801224021B14802F06CF85AE1D8
:1003BC007B68012B23D101220121AD4802F063F8A7
:1003CC0000220221AA4802F05EF800220421A8486B
:1003DC0002F059F801220821A54802F054F8012234
:1003EC001021A34802F04FF801222021A04802F06E
:1003FC004AF8012240219E4802F045F833E17B681F
:10040C00022B23D100220121994802F03CF8002252
:10041C000221974802F037F801220421944802F097
:10042C0032F800220821924802F02DF80022102107
:10043C008F4802F028F8012220218D4802F023F881
:10044C00002240218A4802F01EF80CE17B68032B45
:10045C0023D100220121864802F015F80022022146
:10046C00834802F010F800220421814802F00BF8B6
:10047C00002208217E4802F006F8012210217C4857
:10048C0002F001F801222021794801F0FCFF002242
:10049C004021774801F0F7FFE5E07B68042B23D17E
:1004AC0001220121724801F0EEFF00220221704866
:1004BC0001F0E9FF002204216D4801F0E4FF012264
:1004CC0008216B4801F0DFFF01221021684801F080
:1004DC00DAFF00222021664801F0D5FF00224021DE
:1004EC00634801F0D0FFBEE07B68052B23D10022CE
:1004FC0001215F4801F0C7FF012202215C4801F095
:10050C00C2FF002204215A4801F0BDFF002208213D
:10051C00574801F0B8FF01221021554801F0B3FFF4
:10052C0000222021524801F0AEFF00224021504809
:10053C0001F0A9FF97E07B68062B23D10022012153
:10054C004B4801F0A0FF01220221494801F09BFF1A
:10055C0000220421464801F096FF0022082144485D
:10056C0001F091FF00221021414801F08CFF002284
:10057C0020213F4801F087FF002240213C4801F038
:10058C0082FF70E07B68072B23D1002201213848C1
:10059C0001F079FF00220221354801F074FF00229E
:1005AC000421334801F06FFF01220821304801F08B
:1005BC006AFF012210212E4801F065FF0122202143
:1005CC002B4801F060FF01224021294801F05BFF1C
:1005DC0049E07B68082B23D100220121244801F03B
:1005EC0052FF00220221224801F04DFF002204217B
:1005FC001F4801F048FF002208211D4801F043FF6D
:10060C00002210211A4801F03EFF00222021184838
:10061C0001F039FF00224021154801F034FF22E09F
:10062C0000220121124801F02EFF00220221104865
:10063C0001F029FF002204210D4801F024FF0022C3
:10064C0008210B4801F01FFF01221021084801F07E
:10065C001AFF00222021064801F015FF002240213C
:10066C00034801F010FF00BF0837BD4680BD00BF36
:10067C00000C014080B582B000AF78607B68092B1C
:10068C0001DD00237B607B68002B29D100228021B7
:10069C00C74801F0F8FE00224FF48071C44801F005
:1006AC00F2FE00224FF40071C14801F0ECFE002272
:1006BC004FF48061BE4801F0E6FE00224FF4006169
:1006CC00BB4801F0E0FE00224FF48051B84801F025
:1006DC00DAFE01224FF40051B54801F0D4FE92E14C
:1006EC007B68012B29D101228021B14801F0CBFE7E
:1006FC0000224FF48071AE4801F0C5FE00224FF489
:10070C000071AB4801F0BFFE01224FF48061A84894
:10071C0001F0B9FE01224FF40061A54801F0B3FECF
:10072C0001224FF48051A24801F0ADFE01224FF49A
:10073C0000519F4801F0A7FE65E17B68022B29D18F
:10074C00002280219A4801F09EFE00224FF4807115
:10075C00974801F098FE01224FF40071944801F083
:10076C0092FE00224FF48061914801F08CFE002231
:10077C004FF400618E4801F086FE01224FF4805147
:10078C008B4801F080FE00224FF40051884801F0A4
:10079C007AFE38E17B68032B29D100228021844822
:1007AC0001F071FE00224FF48071814801F06BFE64
:1007BC0000224FF400717E4801F065FE00224FF4D8
:1007CC0080617B4801F05FFE01224FF400617848A4
:1007DC0001F059FE01224FF48051754801F053FE8F
:1007EC0000224FF40051724801F04DFE0BE17B6882
:1007FC00042B29D1012280216D4801F044FE0022F6
:10080C004FF480716A4801F03EFE00224FF40071F3
:10081C00674801F038FE01224FF48061644801F012
:10082C0032FE01224FF40061614801F02CFE0022DF
:10083C004FF480515E4801F026FE00224FF4005127
:10084C005B4801F020FEDEE07B68052B29D10022FD
:10085C008021574801F017FE01224FF48071544853
:10086C0001F011FE00224FF40071514801F00BFE13
:10087C0000224FF480614E4801F005FE01224FF436
:10088C0000614B4801F0FFFD00224FF480514848B5
:10089C0001F0F9FD00224FF40051454801F0F3FD41
:1008AC00B1E07B68062B29D100228021404801F061
:1008BC00EAFD01224FF480713D4801F0E4FD002275
:1008CC004FF400713A4801F0DEFD00224FF48061D4
:1008DC00374801F0D8FD00224FF40061344801F094
:1008EC00D2FD00224FF48051314801F0CCFD0022A2
:1008FC004FF400512E4801F0C6FD84E07B68072BB5
:10090C0029D1002280212A4801F0BDFD00224FF49C
:10091C008071274801F0B7FD00224FF40071244884
:10092C0001F0B1FD01224FF48061214801F0ABFDD3
:10093C0001224FF400611E4801F0A5FD01224FF485
:10094C0080511B4801F09FFD01224FF400511848C3
:10095C0001F099FD57E07B68082B2BD100228021F8
:10096C00134801F090FD00224FF48071104801F003
:10097C008AFD00224FF400710D4801F084FD002225
:10098C004FF480610A4801F07EFD00224FF40061B3
:10099C00074801F078FD00224FF48051044801F023
:1009AC0072FD00224FF40051014801F06CFD2AE069
:1009BC00000C014000228021154801F064FD00224A
:1009CC004FF48071124801F05EFD00224FF400716B
:1009DC000F4801F058FD00224FF480610C4801F0E3
:1009EC0052FD01224FF40061094801F04CFD002238
:1009FC004FF48051064801F046FD00224FF400519F
:100A0C00034801F040FD00BF0837BD4680BD00BF64
:100A1C00000C014080B500AFAA4B1B68212B00F0E5
:100A2C00EC80212B00F34481202B00F08B80202BB9
:100A3C0000F33E81002B02D01F2B27D038E101227E
:100A4C004021A14801F01FFD012280219E4801F0A8
:100A5C001AFD01224FF480719B4801F014FD994B53
:100A6C001F221A6041F2883000F0B2FF4FF47A7006
:100A7C0000F092FF642000F073FF944B04221A6084
:100A8C00924B1B68184601F05DF918E100224021D9
:100A9C008D4801F0F8FC012280218B4801F0F3FC19
:100AAC0001224FF48071884801F0EDFC884B1B68E3
:100ABC00012B15D1834B21221A6040F6B83000F07F
:100ACC0087FF4FF47A7000F067FF642000F048FF56
:100ADC007E4B02221A607D4B1B68184601F032F9DE
:100AEC007C4B1B68002B14DD4FF47A7000F054FF24
:100AFC00764B1B68013B754A1360744B1B68002BCB
:100B0C0002DA724B00221A60704B1B68184601F017
:100B1C0019F9714B1B68002B40F3CC804FF4FA7021
:100B2C0000F01EFF6D4B1B68012B02DD6B4B00228E
:100B3C001A606A4B1B685A1C68490A60184601F017
:100B4C0047F9B7E0012240215F4801F09CFC0022EC
:100B5C0080215D4801F097FC01224FF480715A48C6
:100B6C0001F091FC5A4B1B68012B15D1554B1F22E0
:100B7C001A6041F2883000F02BFF4FF47A7000F0CD
:100B8C000BFF642000F0ECFE504B04221A604F4B1C
:100B9C001B68184601F0D6F84E4B1B68002B14DD71
:100BAC004FF47A7000F0F8FE484B1B68013B474A43
:100BBC001360464B1B68002B02DA444B00221A6070
:100BCC00424B1B68184601F0BDF8434B1B68002BC9
:100BDC0072DD4FF4FA7000F0C3FE404B1B68012B22
:100BEC0002DD3E4B00221A603C4B1B685A1C3B49F1
:100BFC000A60184601F0ECF85EE001224021324810
:100C0C0001F041FC012280212F4801F03CFC002224
:100C1C004FF480712C4801F036FC2D4B1B68012BD6
:100C2C0015D1284B20221A604FF4FA6000F0D0FE48
:100C3C004FF47A7000F0B0FE642000F091FE234B6C
:100C4C0001221A60214B1B68184601F07BF8214BDE
:100C5C001B68002B14DD4FF47A7000F09DFE1B4BCB
:100C6C001B68013B194A1360184B1B68002B02DAF6
:100C7C00164B00221A60154B1B68184601F062F8DF
:100C8C00154B1B68002B19DD4FF4FA7000F068FE51
:100C9C00124B1B68012B02DD104B00221A600F4B0C
:100CAC001B685A1C0D490A60184601F091F805E0C2
:100CBC0000BF04E000BF02E000BF00E000BF00BFC7
:100CCC0080BD00BF8C00002000080140880000207F
:100CDC00A0000020A8000020B000002094000020FC
:100CEC0080B500AFAE4B1B68212B00F0F280212B9E
:100CFC0000F34C81202B00F08F80202B00F34681D9
:100D0C00002B02D01F2B29D040E101224FF400719F
:100D1C00A44801F0B8FB01224FF48061A14801F016
:100D2C00B2FB01224FF400619E4801F0ACFB9C4BDE
:100D3C0021221A6040F6B83000F0F6FD4FF47A70BC
:100D4C0000F0D6FD642000F0B7FD974B03221A602B
:100D5C00954B1B68184600F0C7FF1EE100224FF4AC
:100D6C000071904801F08FFB01224FF480618D4897
:100D7C0001F089FB01224FF400618A4801F083FBEA
:100D8C008A4B1B68002B15DD854B21221A6040F61F
:100D9C00B83000F0C9FD4FF47A7000F0A9FD642062
:100DAC0000F08AFD804B03221A607F4B1B681846AB
:100DBC0000F09AFF7E4B1B68002B14DD4FF47A7009
:100DCC0000F096FD784B1B68013B774A1360764B1D
:100DDC001B68002B02DA744B00221A60724B1B68E2
:100DEC00184600F081FF734B1B68002B40F3D0803A
:100DFC004FF4FA7000F060FD6F4B1B68012B02DDA5
:100E0C006D4B00221A606C4B1B685A1C6A490A60B5
:100E1C00184600F0A9FFBBE001224FF400716148B5
:100E2C0001F031FB00224FF480615E4801F02BFB96
:100E3C0001224FF400615B4801F025FB5B4B1B6802
:100E4C00012B15D1564B1F221A6041F2883000F04D
:100E5C006BFD4FF47A7000F04BFD642000F02CFD1C
:100E6C00514B05221A60504B1B68184600F03CFF92
:100E7C004F4B1B68002B14DD4FF47A7000F038FDDB
:100E8C00494B1B68013B484A1360474B1B68002BBE
:100E9C0002DA454B00221A60434B1B68184600F0DF
:100EAC0023FF444B1B68002B74DD4FF4FA7000F0E9
:100EBC0003FD414B1B68012B02DD3F4B00221A60E6
:100ECC003D4B1B685A1C3C490A60184600F04CFF0D
:100EDC0060E001224FF40071324801F0D4FA012293
:100EEC004FF480612F4801F0CEFA00224FF40061DC
:100EFC002C4801F0C8FA2D4B1B68012B15D1284B3F
:100F0C0020221A604FF4FA6000F00EFD4FF47A7054
:100F1C0000F0EEFC642000F0CFFC234B02221A60A0
:100F2C00214B1B68184600F0DFFE214B1B68002B81
:100F3C0014DD4FF47A7000F0DBFC1B4B1B68013B9B
:100F4C00194A1360184B1B68002B02DA164B00224F
:100F5C001A60154B1B68184600F0C6FE154B1B6833
:100F6C00002B19DD4FF4FA7000F0A6FC124B1B6835
:100F7C00012B02DD104B00221A600F4B1B685A1C10
:100F8C000D490A60184600F0EFFE05E000BF04E0D2
:100F9C0000BF02E000BF00E000BF00BF80BD00BF8B
:100FAC00900000200008014080000020B8000020C4
:100FBC00C0000020C80000207C00002080B500AFDD
:100FCC0000F060FF00F034F800F0BAF800F06CF8B4
:100FDC00144801F0C1FE00220221134801F053FA1B
:100FEC0000220421104801F04EFA002208210E487C
:100FFC0001F049FA002210210B4801F044FA4FF499
:10100C007A7000F0E9FB094B1B68002B07DD4FF4ED
:10101C007A7000F0E1FB2021034801F04CFA00F05B
:10102C0027F9F0E70401002000080140F00000203F
:10103C0080B590B000AF07F11803282200211846A4
:10104C0002F042FA3B1D00221A605A609A60DA6084
:10105C001A610223BB610123BB621023FB620023D4
:10106C007B6307F11803184601F03EFA0346002B88
:10107C0001D000F0EFF80F237B600023BB6000234E
:10108C00FB6000233B6100237B613B1D0021184664
:10109C0001F0AAFC0346002B01D000F0DBF800BFE6
:1010AC004037BD4680BD000080B586B000AF07F16B
:1010BC00080300221A605A609A60DA603B460022EC
:1010CC001A605A601D4B4FF080421A601B4B41F660
:1010DC003F725A60194B00229A60184B0922DA6051
:1010EC00164B00221A61154B00229A61134801F02D
:1010FC00E3FD0346002B01D000F0ACF84FF4805315
:10110C00BB6007F1080319460C4801F079FF034650
:10111C00002B01D000F09EF800233B6000237B6085
:10112C003B461946054802F041F90346002B01D015
:10113C0000F090F800BF1837BD4680BD04010020B8
:10114C0080B588B000AF07F1100300221A605A6016
:10115C009A60DA60354B9B69344A43F01003936113
:10116C00324B9B6903F01003FB60FB682F4B9B69B0
:10117C002E4A43F0040393612C4B9B6903F0040348
:10118C00BB60BB68294B9B69284A43F008039361F9
:10119C00264B9B6903F008037B607B68002240F6BA
:1011AC00FE71234801F06FF9002243F6FF712148CC
:1011BC0001F069F94FF4C0433B6100237B610123CB
:1011CC00BB6107F1100319461B4800F0CBFF40F63A
:1011DC00FE733B6101237B610023BB610223FB6136
:1011EC0007F110031946124800F0BCFF43F6FF73D9
:1011FC003B6101237B610023BB610223FB6107F18F
:10120C00100319460B4800F0ADFF4FF400433B614F
:10121C0000237B610123BB6107F1100319460548CC
:10122C0000F0A0FF00BF2037BD4680BD001002407B
:10123C0000080140000C01400010014080B582B054
:10124C0000AF786000F0E0FBFEF7B4FF00BF08379A
:10125C00BD4680BD80B400AF72B600BFFEE780B55E
:10126C0000AFFFF7D7FBFFF73BFD00BF80BD0000D1
:10127C0080B500AF934B1B68032B00F28C8201A24C
:10128C0052F823F0A11200083B130008FD140008CB
:10129C0093160008FFF7E3FF0020FEF751FF03460B
:1012AC00002B00F07A82874B01221A60864B0022B9
:1012BC001A60864B01221A60854B00221A60854BFE
:1012CC0000221A604FF4FA7000F0DAFA4FF4FA7058
:1012DC0000F09EFA7C4B1B68184600F005FD794B1C
:1012EC001B68184600F02EFD002240217A4801F0C0
:1012FC00CAF800224FF40071774801F0C4F80122BB
:10130C008021754801F0BFF801224FF480617248CA
:10131C0001F0B9F801224FF480716F4801F0B3F875
:10132C0001224FF400616C4801F0ADF835E26B4BD3
:10133C001B68002B21DD4FF4FA7000F069FA644B46
:10134C001B68012B02DD624B00221A60604B1B688C
:10135C005A1C5F490A60184600F03AFD5D4B1B6849
:10136C00012B02DD5B4B00221A605A4B1B685A1C86
:10137C0058490A60184600F0F7FC594B1B68002BC3
:10138C000DDD4FF47A7000F05FFA504B1B68013B97
:10139C004E4A13604D4B1B68184600F0A5FC514B90
:1013AC001B68002B0CDD4FF4FA7000F069FA402139
:1013BC00494801F080F84FF40071474801F07BF880
:1013CC000120FEF7BDFE0346002B10D03E4B1B68E0
:1013DC0001333D4A13603C4B1B68632B02DD3A4BD7
:1013EC0000221A60384B1B68184600F07DFC022066
:1013FC00FEF7A6FE0346002B07D0334B1B68334A7F
:10140C0013604FF47A7000F01FFA0020FEF798FE7C
:10141C000346002B42D02B4B02221A602A4B00228F
:10142C001A602A4B01221A60294B00221A60294BA0
:10143C0000221A604FF4FA7000F022FA4FF4FA709E
:10144C0000F0E6F9204B1B68184600F04DFC1D4BD4
:10145C001B68184600F076FC012240211E4801F062
:10146C0012F801224FF400711B4801F00CF8002215
:10147C008021194801F007F800224FF480611648CA
:10148C0001F001F801224FF48071134800F0FBFFCA
:10149C0001224FF40061104800F0F5FF0B4B1B6864
:1014AC00002B00F37C81074B00221A600E4B0022AC
:1014BC001A600E4B00221A60024B1B68184600F093
:1014CC0041FC6CE18400002080000020880000209A
:1014DC00940000209800002000080140E00000204B
:1014EC00D8000020D00000208C00002090000020AC
:1014FC00AE4B1B68002B21DD4FF4FA7000F088F91D
:10150C00AB4B1B68012B02DDA94B00221A60A84BC8
:10151C001B685A1CA6490A60184600F059FCA54BDA
:10152C001B68012B02DDA34B00221A60A14B1B6828
:10153C005A1CA0490A60184600F016FC9E4B1B680A
:10154C00002B0DDD4FF47A7000F07EF99B4B1B687D
:10155C00013B9A4A1360994B1B68184600F0C4FB78
:10156C00974B1B68002B0CDD4FF4FA7000F088F9D8
:10157C008021944800F09FFF4FF48061914800F067
:10158C009AFF0120FEF7DCFD0346002B10D08E4B9A
:10159C001B6801338C4A13608B4B1B68632B02DD79
:1015AC00894B00221A60884B1B68184600F09CFB84
:1015BC000220FEF7C5FD0346002B07D0824B1B68AB
:1015CC007E4A13604FF47A7000F03EF90020FEF76B
:1015DC00B7FD0346002B42D07C4B03221A607A4B9A
:1015EC0000221A60754B01221A60714B00221A609E
:1015FC00704B00221A604FF4FA7000F041F94FF46E
:10160C00FA7000F005F9704B1B68184600F06CFB83
:10161C006E4B1B68184600F095FB0122402169486F
:10162C0000F031FF01224FF40071664800F02BFFEF
:10163C0001228021634800F026FF01224FF48061D3
:10164C00604800F020FF00224FF480715D4800F0EC
:10165C001AFF00224FF400615A4800F014FF574B58
:10166C001B68002B00F39D80584B00221A60584BCE
:10167C0000221A60574B00221A60544B1B68184604
:10168C0000F060FB8DE0494B1B68002B21DD4FF413
:10169C00FA7000F0BDF8464B1B68012B02DD444B81
:1016AC0000221A60424B1B685A1C41490A601846BA
:1016BC0000F08EFB3F4B1B68012B02DD3D4B0022E3
:1016CC001A603C4B1B685A1C3A490A60184600F0D9
:1016DC004BFB394B1B68002B0DDD4FF47A7000F07F
:1016EC00B3F8364B1B68013B344A1360334B1B6811
:1016FC00184600F0F9FA324B1B68002B0DDD4FF445
:10170C00FA7000F0BDF84FF480712E4800F0D3FE53
:10171C004FF400612B4800F0CEFE0120FEF710FDC7
:10172C000346002B10D0284B1B680133264A13604C
:10173C00254B1B68632B02DD234B00221A60224BC6
:10174C001B68184600F0D0FA0220FEF7F9FC03469D
:10175C00002B07D01C4B1B68184A13604FF47A708F
:10176C0000F072F80020FEF7EBFC0346002B03D1CF
:10177C00124B1B68002B16DC144B00221A60144B06
:10178C0000221A60134B00221A60104B1B6818467B
:10179C0000F0D8FA07E000BF06E000BF04E000BF8D
:1017AC0002E000BF00E000BF00BF80BDE0000020F1
:1017BC009400002098000020D80000208800002011
:1017CC00D000002000080140800000208400002090
:1017DC008C0000209000002080B483B000AF7860B3
:1017EC007B68084A82FB03129210DB17D31A064A55
:1017FC001360064B00221A6000BF0C37BD4680BC3C
:10180C00704700BF67666666EC000020F0000020A1
:10181C0080B483B000AF78607B68084A82FB031207
:10182C009210DB17D31A064A1360064B00221A607B
:10183C0000BF0C37BD4680BC704700BF676666664C
:10184C00DC000020E000002080B483B000AF7860A2
:10185C007B68084A82FB03129210DB17D31A064AE4
:10186C001360064B00221A6000BF0C37BD4680BCCB
:10187C00704700BF67666666D4000020D800002061
:10188C0080B483B000AF78607B68084A82FB031297
:10189C009210DB17D31A064A1360064B00221A600B
:1018AC0000BF0C37BD4680BC704700BF67666666DC
:1018BC00CC000020D000002080B483B000AF786052
:1018CC007B68084A82FB03129210DB17D31A064A74
:1018DC001360064B00221A6000BF0C37BD4680BC5B
:1018EC00704700BF67666666C4000020C800002011
:1018FC0080B483B000AF78607B68084A82FB031227
:10190C009210DB17D31A064A1360064B00221A609A
:10191C0000BF0C37BD4680BC704700BF676666666B
:10192C00BC000020C000002080B483B000AF786001
:10193C007B68084A82FB03129210DB17D31A064A03
:10194C001360064B00221A6000BF0C37BD4680BCEA
:10195C00704700BF67666666B4000020B8000020C0
:10196C0080B483B000AF78607B68084A82FB0312B6
:10197C009210DB17D31A064A1360064B00221A602A
:10198C0000BF0C37BD4680BC704700BF67666666FB
:10199C00AC000020B000002080B483B000AF7860B1
:1019AC007B68084A82FB03129210DB17D31A064A93
:1019BC001360064B00221A6000BF0C37BD4680BC7A
:1019CC00704700BF67666666A4000020A800002070
:1019DC0080B483B000AF78607B68084A82FB031246
:1019EC009210DB17D31A064A1360064B00221A60BA
:1019FC0000BF0C37BD4680BC704700BF676666668B
:101A0C009C000020A000002080B400AF594B1B6844
:101A1C00002B0BDD574B1B68013B564A1360554B93
:101A2C001B68002B02D1544B01221A60534B1B68CC
:101A3C00002B0BDD514B1B68013B504A13604F4B85
:101A4C001B68002B02D14E4B01221A604D4B1B68B8
:101A5C00002B0BDD4B4B1B68013B4A4A1360494B77
:101A6C001B68002B02D1484B01221A60474B1B68A4
:101A7C00002B0BDD454B1B68013B444A1360434B69
:101A8C001B68002B02D1424B01221A60414B1B6890
:101A9C00002B0BDD3F4B1B68013B3E4A13603D4B5B
:101AAC001B68002B02D13C4B01221A603B4B1B687C
:101ABC00002B0BDD394B1B68013B384A1360374B4D
:101ACC001B68002B02D1364B01221A60354B1B6868
:101ADC00002B0BDD334B1B68013B324A1360314B3F
:101AEC001B68002B02D1304B01221A602F4B1B6854
:101AFC00002B0BDD2D4B1B68013B2C4A13602B4B31
:101B0C001B68002B02D12A4B01221A60294B1B683F
:101B1C00002B0BDD274B1B68013B264A1360254B22
:101B2C001B68002B02D1244B01221A60234B1B682B
:101B3C00002B0BDD214B1B68013B204A13601F4B14
:101B4C001B68002B02D11E4B01221A601D4B1B6817
:101B5C00002B0BDD1B4B1B68013B1A4A1360194B06
:101B6C001B68002B02D1184B01221A6000BFBD4626
:101B7C0080BC70479C000020A0000020A400002026
:101B8C00A8000020AC000020B0000020B400002011
:101B9C00B8000020BC000020C0000020C4000020C1
:101BAC00C8000020CC000020D0000020E400002061
:101BBC00E8000020DC000020E0000020D400002021
:101BCC00D8000020EC000020F000002080B485B08C
:101BDC0000AF154B9B69144A43F001039361124B00
:101BEC009B6903F00103BB60BB680F4BDB690E4ABA
:101BFC0043F08053D3610C4BDB6903F080537B6063
:101C0C007B680A4B5B68FB60FB6823F0E063FB605E
:101C1C00FB6843F08063FB60044AFB68536000BFC1
:101C2C001437BD4680BC70470010024000000140D4
:101C3C0080B584B000AF78607B681B68B3F1804FCF
:101C4C0013D10C4BDB690B4A43F00103D361094BF5
:101C5C00DB6903F00103FB60FB68002200211C2000
:101C6C0000F049FA1C2000F062FA00BF1037BD46A4
:101C7C0080BD00BF0010024080B400AFFEE780B40E
:101C8C0000AFFEE780B400AFFEE780B400AFFEE724
:101C9C0080B400AFFEE780B400AF00BFBD4680BC8F
:101CAC00704780B400AF00BFBD4680BC704780B4A5
:101CBC0000AF00BFBD4680BC704780B500AF00F0E0
:101CCC0027F900BF80BD000080B500AF024801F0CD
:101CDC008FF800BF80BD00BF0401002080B400AFAE
:101CEC0000BFBD4680BC704780B483B000AF786045
:101CFC007B68092B06DC114B00221A600F4A7B68AB
:101D0C00536016E07B680E4A82FB03129210DB17BD
:101D1C00D31A0A4A13607968094B83FB01239A1082
:101D2C00CB17D21A13469B0013445B00CA1A034B01
:101D3C005A6000BF0C37BD4680BC7047F4000020D1
:101D4C006766666680B483B000AF7860054B00228E
:101D5C001A607B680133034A536000BF0C37BD46E1
:101D6C0080BC7047FC00002080B582B000AF78606A
:101D7C007B68002B03D07B68012B10D01EE0124B2C
:101D8C001B681846FEF776FC002208210F4800F06D
:101D9C007AFB012210210D4800F075FB0FE00A4B75
:101DAC005B681846FEF766FC01220821074800F024
:101DBC006AFB00221021054800F065FB00BF00BF44
:101DCC000837BD4680BD00BFF4000020000801406C
:101DDC0080B582B000AF78607B68002B03D07B6845
:101DEC00012B10D01EE0124B1B681846FEF7B0FA00
:101DFC00002202210F4800F046FB012204210D486D
:101E0C0000F041FB0FE00A4B5B681846FEF7A0FAA6
:101E1C0001220221074800F036FB0022042105486C
:101E2C0000F031FB00BF00BF0837BD4680BD00BFCE
:101E3C00FC000020000801400C480D490D4A00230D
:101E4C0002E0D458C4500433C4188C42F9D30A4A63
:101E5C000A4C002301E013600432A242FBD3FFF7CB
:101E6C003DFF01F00DFBFFF7A9F8704700000020C3
:101E7C003C000020243500083C00002050010020CC
:101E8C00FEE7000080B500AF084B1B68074A43F023
:101E9C0010031360032000F023F90F2000F008F862
:101EAC00FFF794FE0023184680BD00BF00200240BF
:101EBC0080B582B000AF7860124B1A68124B1B7859
:101ECC0019464FF47A73B3FBF1F3B2FBF3F31846F4
:101EDC0000F03BF90346002B01D001230EE07B6898
:101EEC000F2B0AD8002279684FF0FF3000F003F96D
:101EFC00064A7B681360002300E00123184608376C
:101F0C00BD4680BD30000020380000203400002089
:101F1C0080B400AF054B1B781A46054B1B68134465
:101F2C00034A136000BFBD4680BC704738000020D8
:101F3C004C01002080B400AF024B1B681846BD4614
:101F4C0080BC70474C01002080B485B000AF786035
:101F5C007B6803F00703FB600C4BDB68BB60BA6863
:101F6C004FF6FF031340BB60FB681A02BB681343B8
:101F7C0043F0BF6343F40033BB60044ABB68D360D7
:101F8C0000BF1437BD4680BC704700BF00ED00E0B9
:101F9C0080B400AF044BDB681B0A03F00703184640
:101FAC00BD4680BC704700BF00ED00E080B483B03C
:101FBC0000AF0346FB7197F90730002B0BDBFB7965
:101FCC0003F01F02064997F907305B09012000FA5C
:101FDC0002F241F8232000BF0C37BD4680BC70478D
:101FEC0000E100E080B483B000AF03463960FB71C0
:101FFC0097F90730002B0ADB3B68DAB20C4997F9EA
:10200C0007301201D2B20B4483F800230AE03B687C
:10201C00DAB20849FB7903F00F03043B1201D2B288
:10202C000B441A7600BF0C37BD4680BC704700BF0E
:10203C0000E100E000ED00E080B489B000AFF86092
:10204C00B9607A60FB6803F00703FB61FB69C3F1BD
:10205C000703042B28BF0423BB61FB690433062B45
:10206C0002D9FB69033B00E000237B614FF0FF3298
:10207C00BB6902FA03F3DA43BB681A407B699A40E6
:10208C004FF0FF317B6901FA03F3D9437B680B40B6
:10209C00134318462437BD4680BC704780B582B0C8
:1020AC0000AF78607B68013BB3F1807F01D30123E3
:1020BC000FE00A4A7B68013B53600F214FF0FF3061
:1020CC00FFF790FF054B00229A60044B07221A6021
:1020DC00002318460837BD4680BD00BF10E000E065
:1020EC0080B582B000AF78607868FFF72DFF00BF35
:1020FC000837BD4680BD80B586B000AF0346B960D9
:10210C007A60FB7300237B61FFF742FF78617A688A
:10211C00B9687869FFF790FF024697F90F301146BE
:10212C001846FFF75FFF00BF1837BD4680BD80B56E
:10213C0082B000AF0346FB7197F907301846FFF7E2
:10214C0035FF00BF0837BD4680BD80B582B000AFFB
:10215C0078607868FFF7A2FF034618460837BD463B
:10216C0080BD000080B48BB000AF78603960002374
:10217C007B6200233B6248E101227B6A02FA03F393
:10218C00FB613B681B68FA691340BB61BA69FB6968
:10219C009A4240F037813B685B68A34A93425ED019
:1021AC00A14A934275D8A14A934258D09F4A934270
:1021BC006FD89F4A934252D09D4A934269D89D4A08
:1021CC0093424CD09B4A934263D89B4A934246D04D
:1021DC00994A93425DD8122B2AD8122B59D801A2B6
:1021EC0052F823F06B220008452200085722000801
:1021FC00992200089F2200089F2200089F220008B5
:10220C009F2200089F2200089F2200089F2200089E
:10221C009F2200089F2200089F2200089F2200088E
:10222C009F2200089F2200084D220008612200080E
:10223C00824A934213D02CE03B68DB683B6229E076
:10224C003B68DB6804333B6224E03B68DB680833A3
:10225C003B621FE03B68DB680C333B621AE03B6877
:10226C009B68002B02D104233B6213E03B689B6804
:10227C00012B05D108233B627B68FA691A6109E0DE
:10228C0008233B627B68FA695A6103E000233B62D6
:10229C0000E000BFBB69FF2B01D87B6801E07B68C5
:1022AC0004337B61BB69FF2B02D87B6A9B0002E085
:1022BC007B6A083B9B003B617B691A680F213B6979
:1022CC0001FA03F3DB431A40396A3B6901FA03F361
:1022DC001A437B691A603B685B6803F08053002BE0
:1022EC0000F09080564B9B69554A43F00103936173
:1022FC00534B9B6903F00103BB60BB68514A7B6A7B
:10230C009B08023352F82330FB607B6A03F0030313
:10231C009B000F2202FA03F3DB43FA681340FB60C5
:10232C007B68494A93420DD07B68484A934207D058
:10233C007B68474A934201D1022304E0032302E065
:10234C00012300E000237A6A02F00302920093401A
:10235C00FA681343FB603B497B6A9B080233FA68BB
:10236C0041F823203B685B6803F48033002B06D0D4
:10237C00384B1A683749BB6913430B6006E0354B81
:10238C001A68BB69DB43334913400B603B685B68DD
:10239C0003F40033002B06D02E4B5A682D49BB6931
:1023AC0013434B6006E02B4B5A68BB69DB4329494E
:1023BC0013404B603B685B6803F48013002B06D022
:1023CC00244B9A682349BB6913438B6006E0214B6D
:1023DC009A68BB69DB431F4913408B603B685B68A1
:1023EC0003F40013002B06D01A4BDA681949BB69A9
:1023FC001343CB6006E0174BDA68BB69DB43154926
:10240C001340CB607B6A01337B623B681A687B6A42
:10241C0022FA03F3002B7FF4AFAE00BF00BF2C37C2
:10242C00BD4680BC704700BF000032100000311068
:10243C0000002210000021100000121000001110EA
:10244C00001002400000014000080140000C014057
:10245C00001001400004014080B485B000AF7860EA
:10246C000B467B807B689A687B881340002B02D0DC
:10247C000123FB7301E00023FB73FB7B184614372D
:10248C00BD4680BC704780B483B000AF78600B460B
:10249C007B8013467B707B78002B03D07A887B681B
:1024AC001A6103E07B881A047B681A6100BF0C3741
:1024BC00BD4680BC704780B485B000AF78600B46D9
:1024CC007B807B68DB68FB607A88FB6813401A04AE
:1024DC00FB68D9437B880B401A437B681A6100BFA9
:1024EC001437BD4680BC704780B586B000AF7860AD
:1024FC007B68002B01D101236CE27B681B6803F025
:10250C000103002B00F08780924B5B6803F00C03F7
:10251C00042B0CD08F4B5B6803F00C03082B12D1EF
:10252C008C4B5B6803F48033B3F5803F0BD1894B44
:10253C001B6803F40033002B6CD07B685B68002BAA
:10254C0068D1012346E27B685B68B3F5803F06D116
:10255C00804B1B687F4A43F4803313602EE07B680A
:10256C005B68002B0CD17B4B1B687A4A23F48033BD
:10257C001360784B1B68774A23F4802313601DE0AB
:10258C007B685B68B3F5A02F0CD1724B1B68714A4A
:10259C0043F4802313606F4B1B686E4A43F4803303
:1025AC0013600BE06B4B1B686A4A23F48033136097
:1025BC00684B1B68674A23F4802313607B685B6855
:1025CC00002B13D0FFF7B6FC386108E0FFF7B2FC24
:1025DC0002463B69D31A642B01D90323FAE15D4B04
:1025EC001B6803F40033002BF0D014E0FFF7A2FCBF
:1025FC00386108E0FFF79EFC02463B69D31A642B56
:10260C0001D90323E6E1534B1B6803F40033002B81
:10261C00F0D100E000BF7B681B6803F00203002BC5
:10262C0063D04C4B5B6803F00C03002B0BD0494B75
:10263C005B6803F00C03082B1CD1464B5B6803F45E
:10264C008033002B16D1434B1B6803F00203002B85
:10265C0005D07B681B69012B01D00123BAE13D4BEE
:10266C001B6823F0F8027B685B69DB003949134374
:10267C000B603AE07B681B69002B20D0364B0122A3
:10268C001A60FFF757FC386108E0FFF753FC02466D
:10269C003B69D31A022B01D903239BE12D4B1B68F9
:1026AC0003F00203002BF0D02A4B1B6823F0F80236
:1026BC007B685B69DB00274913430B6015E0264BF5
:1026CC0000221A60FFF736FC386108E0FFF732FC95
:1026DC0002463B69D31A022B01D903237AE11D4B25
:1026EC001B6803F00203002BF0D17B681B6803F01E
:1026FC000803002B3AD07B689B69002B19D0174B31
:10270C0001221A60FFF716FC386108E0FFF712FC93
:10271C0002463B69D31A022B01D903235AE10D4B14
:10272C005B6A03F00203002BF0D0012000F0A6FA44
:10273C001CE00A4B00221A60FFF7FCFB38610FE02B
:10274C00FFF7F8FB02463B69D31A022B08D9032387
:10275C0040E100BF001002400000424280044242AF
:10276C009E4B5B6A03F00203002BE9D17B681B686C
:10277C0003F00403002B00F0A6800023FB75974B9D
:10278C00DB6903F08053002B0DD1944BDB69934A2A
:10279C0043F08053D361914BDB6903F08053BB60F2
:1027AC00BB680123FB758E4B1B6803F48073002BF5
:1027BC0018D18B4B1B688A4A43F480731360FFF764
:1027CC00B9FB386108E0FFF7B5FB02463B69D31A49
:1027DC00642B01D90323FDE0814B1B6803F4807348
:1027EC00002BF0D07B68DB68012B06D17B4B1B6A7E
:1027FC007A4A43F0010313622DE07B68DB68002BFF
:10280C000CD1764B1B6A754A23F001031362734B90
:10281C001B6A724A23F0040313621CE07B68DB68BA
:10282C00052B0CD16D4B1B6A6C4A43F004031362ED
:10283C006A4B1B6A694A43F0010313620BE0674B56
:10284C001B6A664A23F001031362644B1B6A634ADA
:10285C0023F0040313627B68DB68002B15D0FFF7B1
:10286C0069FB38610AE0FFF765FB02463B69D31A46
:10287C0041F28832934201D90323ABE0574B1B6AD8
:10288C0003F00203002BEED014E0FFF753FB38618A
:10289C000AE0FFF74FFB02463B69D31A41F288323C
:1028AC00934201D9032395E04C4B1B6A03F00203BE
:1028BC00002BEED1FB7D012B05D1484BDB69474A40
:1028CC0023F08053D3617B68DB69002B00F081809F
:1028DC00424B5B6803F00C03082B61D07B68DB690F
:1028EC00022B46D13F4B00221A60FFF723FB3861C5
:1028FC0008E0FFF71FFB02463B69D31A022B01D9F4
:10290C00032367E0354B1B6803F00073002BF0D1F9
:10291C007B681B6AB3F5803F08D1304B5B6823F4AE
:10292C0000327B689B682D4913434B602B4B5B68D3
:10293C0023F474127B68196A7B685B6A0B43274922
:10294C0013434B60274B01221A60FFF7F3FA3861EF
:10295C0008E0FFF7EFFA02463B69D31A022B01D9C4
:10296C00032337E01D4B1B6803F00073002BF0D0E2
:10297C002FE01C4B00221A60FFF7DCFA386108E0EC
:10298C00FFF7D8FA02463B69D31A022B01D903236D
:10299C0020E0124B1B6803F00073002BF0D118E001
:1029AC007B68DB69012B01D1012313E00B4B5B68C6
:1029BC00FB60FB6803F480327B681B6A9A4206D189
:1029CC00FB6803F470127B685B6A9A4201D00123A6
:1029DC0000E0002318461837BD4680BD00100240A9
:1029EC00007000406000424280B584B000AF786057
:1029FC0039607B68002B01D10123D0E06A4B1B6846
:102A0C0003F007033A689A4210D9674B1B6823F00E
:102A1C00070265493B6813430B60634B1B6803F06B
:102A2C0007033A689A4201D00123B8E07B681B681F
:102A3C0003F00203002B20D07B681B6803F0040317
:102A4C00002B05D0594B5B68584A43F4E063536044
:102A5C007B681B6803F00803002B05D0534B5B68A5
:102A6C00524A43F460535360504B5B6823F0F002BE
:102A7C007B689B684D4913434B607B681B6803F074
:102A8C000103002B40D07B685B68012B07D1474BBF
:102A9C001B6803F40033002B15D101237FE07B6806
:102AAC005B68022B07D1414B1B6803F00073002BB2
:102ABC0009D1012373E03D4B1B6803F00203002B8B
:102ACC0001D101236BE0394B5B6823F003027B6877
:102ADC005B68364913434B60FFF72CFAF8600AE049
:102AEC00FFF728FA0246FB68D31A41F28832934268
:102AFC0001D9032353E02D4B5B6803F00C027B6878
:102B0C005B689B009A42EBD1274B1B6803F00703D1
:102B1C003A689A4210D2244B1B6823F007022249D0
:102B2C003B6813430B60204B1B6803F007033A68A8
:102B3C009A4201D0012332E07B681B6803F0040346
:102B4C00002B08D0194B5B6823F4E0627B68DB68D0
:102B5C00164913434B607B681B6803F00803002B7A
:102B6C0009D0124B5B6823F460527B681B69DB0055
:102B7C000E4913434B6000F021F802460B4B5B6887
:102B8C001B0903F00F030A49CB5C22FA03F3094A31
:102B9C001360094B1B681846FFF78AF90023184687
:102BAC001037BD4680BD00BF00200240001002401F
:102BBC000C350008300000203400002090B48AB09E
:102BCC0000AF2A4B3C1D0FCB84E80F0040F20123D1
:102BDC003B800023FB610023BB6100237B6200234D
:102BEC007B6100233B62224B5B68FB61FB6903F05A
:102BFC000C03042B02D0082B03D02DE01D4B3B62A1
:102C0C002DE0FB699B0C03F00F0307F12802134422
:102C1C0013F8243C7B61FB6903F48033002B13D045
:102C2C00134B5B685B0C03F0010307F128021344A0
:102C3C0013F8283CBB617B690E4A02FB03F2BB69AB
:102C4C00B2FBF3F37B6204E07B690B4A02FB03F3F8
:102C5C007B627B6A3B6202E0064B3B6200BF3B6AD5
:102C6C0018462837BD4690BC704700BFFC3400089E
:102C7C000010024000127A0000093D0080B485B0BB
:102C8C0000AF78600A4B1B680A4AA2FB03235B0A5D
:102C9C007A6802FB03F3FB6000BFFB685A1EFA6004
:102CAC00002BF9D100BF00BF1437BD4680BC704764
:102CBC0030000020D34D621080B582B000AF786038
:102CCC007B68002B01D1012341E07B6893F83D30F8
:102CDC00DBB2002B06D17B68002283F83C2078689D
:102CEC00FEF7A6FF7B68022283F83D207B681A68FA
:102CFC007B6804331946104600F06AFA7B6801229F
:102D0C0083F846207B68012283F83E207B680122F1
:102D1C0083F83F207B68012283F840207B680122E6
:102D2C0083F841207B68012283F842207B680122D2
:102D3C0083F843207B68012283F844207B680122BE
:102D4C0083F845207B68012283F83D200023184638
:102D5C000837BD4680BD000080B485B000AF7860F8
:102D6C007B6893F83D30DBB2012B01D0012335E0B9
:102D7C007B68022283F83D207B681B68DA687B68DD
:102D8C001B6842F00102DA607B681B68164A9342AA
:102D9C0009D07B681B68B3F1804F04D07B681B683B
:102DAC00124A934211D17B681B689B6803F007039E
:102DBC00FB60FB68062B10D07B681B681A687B686D
:102DCC001B6842F001021A6007E07B681B681A68F6
:102DDC007B681B6842F001021A6000231846143706
:102DEC00BD4680BC704700BF002C01400004004071
:102DFC0080B582B000AF78607B681B681B6903F0FC
:102E0C000203022B22D17B681B68DB6803F00203F0
:102E1C00022B1BD17B681B686FF002021A617B6866
:102E2C0001221A777B681B689B6903F00303002B54
:102E3C0003D0786800F0B1F905E0786800F0A4F9E7
:102E4C00786800F0B3F97B6800221A777B681B68FE
:102E5C001B6903F00403042B22D17B681B68DB681D
:102E6C0003F00403042B1BD17B681B686FF0040276
:102E7C001A617B6802221A777B681B689B6903F4D2
:102E8C004073002B03D0786800F087F905E0786870
:102E9C0000F07AF9786800F089F97B6800221A77DB
:102EAC007B681B681B6903F00803082B22D17B6825
:102EBC001B68DB6803F00803082B1BD17B681B68BD
:102ECC006FF008021A617B6804221A777B681B6812
:102EDC00DB6903F00303002B03D0786800F05DF985
:102EEC0005E0786800F050F9786800F05FF97B68CD
:102EFC0000221A777B681B681B6903F01003102BE8
:102F0C0022D17B681B68DB6803F01003102B1BD1EC
:102F1C007B681B686FF010021A617B6808221A77B5
:102F2C007B681B68DB6903F44073002B03D0786863
:102F3C0000F033F905E0786800F026F9786800F0C5
:102F4C0035F97B6800221A777B681B681B6903F0D4
:102F5C000103012B0ED17B681B68DB6803F00103B6
:102F6C00012B07D17B681B686FF001021A6178682E
:102F7C00FEF764F97B681B681B6903F08003802BE8
:102F8C000ED17B681B68DB6803F08003802B07D1B4
:102F9C007B681B686FF080021A61786800F067FA32
:102FAC007B681B681B6903F04003402B0ED17B68C8
:102FBC001B68DB6803F04003402B07D17B681B6860
:102FCC006FF040021A61786800F0F9F87B681B68B2
:102FDC001B6903F02003202B0ED17B681B68DB6878
:102FEC0003F02003202B07D17B681B686FF02002B5
:102FFC001A61786800F032FA00BF0837BD4680BD10
:10300C0080B584B000AF786039607B6893F83C3051
:10301C00012B01D10223B3E07B68012283F83C2011
:10302C007B68022283F83D207B681B689B68FB60F1
:10303C00FB6823F07703FB60FB6823F47F43FB60A2
:10304C007B681B68FA689A603B681B68B3F5005F85
:10305C003ED0B3F5005F00F28780B3F5805F00F0DF
:10306C008580B3F5805F7FD8702B1AD0702B7BD8FE
:10307C00602B50D0602B77D8502B3CD0502B73D872
:10308C00402B58D0402B6FD8302B64D0302B6BD8C2
:10309C00202B60D0202B67D8002B5CD0102B5AD063
:1030AC0062E07B6818683B6899683B685A683B68C3
:1030BC00DB6800F05CF97B681B689B68FB60FB6855
:1030CC0043F07703FB607B681B68FA689A604EE0FC
:1030DC007B6818683B6899683B685A683B68DB6892
:1030EC0000F045F97B681B689A687B681B6842F4A2
:1030FC0080429A603BE07B6818683B6859683B6883
:10310C00DB681A4600F0BCF87B681B685021184637
:10311C0000F013F92BE07B6818683B6859683B6832
:10312C00DB681A4600F0DAF87B681B6860211846E9
:10313C0000F003F91BE07B6818683B6859683B6832
:10314C00DB681A4600F09CF87B681B684021184627
:10315C0000F0F3F80BE07B681A683B681B681946B3
:10316C00104600F0EAF802E000BF00E000BF7B6808
:10317C00012283F83D207B68002283F83C20002349
:10318C0018461037BD4680BD80B483B000AF786060
:10319C0000BF0C37BD4680BC704780B483B000AF15
:1031AC00786000BF0C37BD4680BC704780B483B0DC
:1031BC0000AF786000BF0C37BD4680BC704780B450
:1031CC0083B000AF786000BF0C37BD4680BC704741
:1031DC0080B485B000AF786039607B681B68FB6099
:1031EC007B68254A934207D07B68B3F1804F03D0AC
:1031FC007B68224A934208D1FB6823F07003FB6082
:10320C003B685B68FA681343FB607B681A4A93421D
:10321C0007D07B68B3F1804F03D07B68174A934289
:10322C0008D1FB6823F44073FB603B68DB68FA68E9
:10323C001343FB60FB6823F080023B685B6913431C
:10324C00FB607B68FA681A603B689A687B68DA6294
:10325C003B681A687B689A627B68074A934203D181
:10326C003B681A697B681A637B6801225A6100BF4C
:10327C001437BD4680BC7047002C01400004004050
:10328C0080B487B000AFF860B9607A60FB681B6AE5
:10329C007B61FB681B6A23F00102FB681A62FB6806
:1032AC009B693B613B6923F0F0033B617B681B012D
:1032BC003A6913433B617B6923F00A037B617A69AA
:1032CC00BB6813437B61FB683A699A61FB687A6956
:1032DC001A6200BF1C37BD4680BC704780B487B0F3
:1032EC0000AFF860B9607A60FB681B6A23F01002CB
:1032FC00FB681A62FB689B697B61FB681B6A3B611C
:10330C007B6923F470437B617B681B037A691343ED
:10331C007B613B6923F0A0033B61BB681B013A69ED
:10332C0013433B61FB687A699A61FB683A691A62DC
:10333C0000BF1C37BD4680BC704780B485B000AF61
:10334C00786039607B689B68FB60FB6823F07003D6
:10335C00FB603A68FB68134343F00703FB607B6830
:10336C00FA689A6000BF1437BD4680BC704780B4C1
:10337C0087B000AFF860B9607A603B60FB689B680F
:10338C007B617B6923F47F437B613B681A027B681A
:10339C001A43BB6813437A6913437B61FB687A69F0
:1033AC009A6000BF1C37BD4680BC704780B485B0A6
:1033BC0000AF786039607B6893F83C30012B01D109
:1033CC00022341E07B68012283F83C207B680222C7
:1033DC0083F83D207B681B685B68FB607B681B681F
:1033EC009B68BB60FB6823F07003FB603B681B6849
:1033FC00FA681343FB607B681B68FA685A607B6849
:10340C001B68144A934209D07B681B68B3F1804F48
:10341C0004D07B681B68104A93420CD1BB6823F024
:10342C008003BB603B685B68BA681343BB607B6816
:10343C001B68BA689A607B68012283F83D207B6820
:10344C00002283F83C20002318461437BD4680BC6C
:10345C00704700BF002C01400004004080B483B0D2
:10346C0000AF786000BF0C37BD4680BC704780B49D
:10347C0083B000AF786000BF0C37BD4680BC70478E
:10348C0070B500260C4D0D4C641BA410A64209D13E
:10349C0000F022F800260A4D0A4C641BA410A64228
:1034AC0005D170BD55F8043B98470136EEE755F849
:1034BC00043B98470136F2E71C3500081C35000820
:1034CC001C3500082035000803460244934200D105
:1034DC00704703F8011BF9E7F8B500BFF8BC08BC4E
:1034EC009E467047F8B500BFF8BC08BC9E467047B6
:1034FC0002030405060708090A0B0C0D0E0F101029
:10350C000000000000000000010203040607080987
:04351C003101000871
:043520000D01000891
:103524000100000001000000010000000100000093
:103534000100000001000000010000000100000083
:103544000100000001000000010000000100000073
:0C3554000024F400100000000100000042
:0400000508001E458C
:00000001FF
