:020000040800F2
:1000000000280020D11D0008111C0008171C000842
:100010001D1C0008231C0008291C0008000000000B
:100020000000000000000000000000002F1C00087D
:100030003B1C000800000000471C0008531C00087F
:10004000191E0008191E0008191E0008191E0008B4
:10005000191E0008191E0008191E0008191E0008A4
:10006000191E0008191E0008191E0008191E000894
:10007000191E0008191E0008191E0008191E000884
:10008000191E0008191E0008191E0008191E000874
:10009000191E0008191E0008191E0008191E000864
:1000A000191E0008191E0008191E0008191E000854
:1000B000611C0008191E000800000000191E00083D
:1000C000191E00080000000000000000191E0008B2
:1000D00000000000191E0008191E000800000000A2
:1000E000191E0008191E0008191E00080000000053
:1000F0000000000000000000000000000000000000
:0C01000000000000000000005FF808F1A3
:10010C0010B5054C237833B9044B13B10448AFF345
:10011C0000800123237010BD3C0000200000000073
:10012C007034000808B5034B1BB103490348AFF307
:10013C00008008BD00000000400000207034000862
:10014C0080B483B000AF7860094A7B6852F82330E2
:10015C00012B06D1064A7B68002142F823100123AB
:10016C0000E0002318460C37BD4680BC704700BF2A
:10017C005800002080B483B000AF7860044A7B68DC
:10018C00012142F8231000BF0C37BD4680BC7047DC
:10019C005800002080B483B000AF7860044A7B68BC
:1001AC00012142F8231000BF0C37BD4680BC7047BC
:1001BC006400002080B582B000AF00237B60AEE00D
:1001CC005B4A7B6852F823205A497B6841F823200C
:1001DC00594A7B6852F8232055497B6841F8232003
:1001EC007B68002B0BD14FF40051544802F0FAF805
:1001FC0003461946504A7B6842F823101CE07B6882
:10020C00012B0BD14FF480414C4802F0EBF8034624
:10021C001946494A7B6842F823100DE07B68022B93
:10022C000AD14FF40041464802F0DCF80346194667
:10023C00414A7B6842F823103E4A7B6852F82320DF
:10024C003B497B6851F823309A425ED1384A7B682F
:10025C0052F8232038497B6851F823309A4254D104
:10026C00384A7B6852F8232033497B6851F8233095
:10027C009A4216D0304A7B6852F8232031497B6869
:10028C0041F823202C4A7B6852F82330002B42D1B2
:10029C002D4A7B68002142F823107868FFF76AFF2B
:1002AC0039E02A4A7B6852F82330012B14D1264AB4
:1002BC007B6852F823305A1C23497B6841F8232071
:1002CC00214A7B6852F82330642B24DD1D4A7B685D
:1002DC00012142F823101EE01B4A7B6852F82330A0
:1002EC005A1C19497B6841F82320174A7B6852F83D
:1002FC002330B3F5967F0EDD7868FFF74BFF114A7C
:10030C007B68012142F8231005E0104A7B6800212C
:10031C0042F8231000E000BF7B6801337B607B68F0
:10032C00022B7FF74DAF00BF00BF0837BD4680BD25
:10033C000C000020000000201800002000100140DC
:10034C00000C0140240000207000002064000020FC
:10035C0080B582B000AF78607B68092B01DD00238B
:10036C007B607B68002B23D100220121C04802F066
:10037C0050F800220221BE4802F04BF80022042162
:10038C00BB4802F046F800220821B94802F041F8B7
:10039C0000221021B64802F03CF800222021B4487B
:1003AC0002F037F801224021B14802F032F85AE14C
:1003BC007B68012B23D101220121AD4802F029F8E1
:1003CC0000220221AA4802F024F800220421A848A5
:1003DC0002F01FF801220821A54802F01AF80122A8
:1003EC001021A34802F015F801222021A04802F0A8
:1003FC0010F8012240219E4802F00BF833E17B6893
:10040C00022B23D100220121994802F002F800228C
:10041C000221974801F0FDFF01220421944801F0CC
:10042C00F8FF00220821924801F0F3FF002210216E
:10043C008F4801F0EEFF012220218D4801F0E9FFE9
:10044C00002240218A4801F0E4FF0CE17B68032B79
:10045C0023D100220121864801F0DBFF002202217A
:10046C00834801F0D6FF00220421814801F0D1FF1E
:10047C00002208217E4801F0CCFF012210217C488B
:10048C0001F0C7FF01222021794801F0C2FF0022B0
:10049C004021774801F0BDFFE5E07B68042B23D1B8
:1004AC0001220121724801F0B4FF002202217048A0
:1004BC0001F0AFFF002204216D4801F0AAFF0122D8
:1004CC0008216B4801F0A5FF01221021684801F0BA
:1004DC00A0FF00222021664801F09BFF0022402152
:1004EC00634801F096FFBEE07B68052B23D1002208
:1004FC0001215F4801F08DFF012202215C4801F0CF
:10050C0088FF002204215A4801F083FF00220821B1
:10051C00574801F07EFF01221021554801F079FF68
:10052C0000222021524801F074FF00224021504843
:10053C0001F06FFF97E07B68062B23D1002201218D
:10054C004B4801F066FF01220221494801F061FF8E
:10055C0000220421464801F05CFF00220821444897
:10056C0001F057FF00221021414801F052FF0022F8
:10057C0020213F4801F04DFF002240213C4801F072
:10058C0048FF70E07B68072B23D1002201213848FB
:10059C0001F03FFF00220221354801F03AFF002212
:1005AC000421334801F035FF01220821304801F0C5
:1005BC0030FF012210212E4801F02BFF01222021B7
:1005CC002B4801F026FF01224021294801F021FF90
:1005DC0049E07B68082B23D100220121244801F03B
:1005EC0018FF00220221224801F013FF00220421EF
:1005FC001F4801F00EFF002208211D4801F009FFE1
:10060C00002210211A4801F004FF00222021184872
:10061C0001F0FFFE00224021154801F0FAFE22E015
:10062C0000220121124801F0F4FE002202211048A0
:10063C0001F0EFFE002204210D4801F0EAFE002239
:10064C0008210B4801F0E5FE01221021084801F0B9
:10065C00E0FE00222021064801F0DBFE00224021B2
:10066C00034801F0D6FE00BF0837BD4680BD00BF71
:10067C00000C014080B582B000AF78607B68092B1C
:10068C0001DD00237B607B68002B29D100228021B7
:10069C00C74801F0BEFE00224FF48071C44801F03F
:1006AC00B8FE00224FF40071C14801F0B2FE0022E6
:1006BC004FF48061BE4801F0ACFE00224FF40061A3
:1006CC00BB4801F0A6FE00224FF48051B84801F05F
:1006DC00A0FE01224FF40051B54801F09AFE92E1C0
:1006EC007B68012B29D101228021B14801F091FEB8
:1006FC0000224FF48071AE4801F08BFE00224FF4C3
:10070C000071AB4801F085FE01224FF48061A848CE
:10071C0001F07FFE01224FF40061A54801F079FE43
:10072C0001224FF48051A24801F073FE01224FF4D4
:10073C0000519F4801F06DFE65E17B68022B29D1C9
:10074C00002280219A4801F064FE00224FF480714F
:10075C00974801F05EFE01224FF40071944801F0BD
:10076C0058FE00224FF48061914801F052FE0022A5
:10077C004FF400618E4801F04CFE01224FF4805181
:10078C008B4801F046FE00224FF40051884801F0DE
:10079C0040FE38E17B68032B29D10022802184485C
:1007AC0001F037FE00224FF48071814801F031FED8
:1007BC0000224FF400717E4801F02BFE00224FF412
:1007CC0080617B4801F025FE01224FF400617848DE
:1007DC0001F01FFE01224FF48051754801F019FE03
:1007EC0000224FF40051724801F013FE0BE17B68BC
:1007FC00042B29D1012280216D4801F00AFE002230
:10080C004FF480716A4801F004FE00224FF400712D
:10081C00674801F0FEFD01224FF48061644801F04D
:10082C00F8FD01224FF40061614801F0F2FD002255
:10083C004FF480515E4801F0ECFD00224FF4005162
:10084C005B4801F0E6FDDEE07B68052B29D1002238
:10085C008021574801F0DDFD01224FF4807154488E
:10086C0001F0D7FD00224FF40071514801F0D1FD89
:10087C0000224FF480614E4801F0CBFD01224FF471
:10088C0000614B4801F0C5FD00224FF480514848EF
:10089C0001F0BFFD00224FF40051454801F0B9FDB5
:1008AC00B1E07B68062B29D100228021404801F061
:1008BC00B0FD01224FF480713D4801F0AAFD0022E9
:1008CC004FF400713A4801F0A4FD00224FF480610E
:1008DC00374801F09EFD00224FF40061344801F0CE
:1008EC0098FD00224FF48051314801F092FD002216
:1008FC004FF400512E4801F08CFD84E07B68072BEF
:10090C0029D1002280212A4801F083FD00224FF4D6
:10091C008071274801F07DFD00224FF400712448BE
:10092C0001F077FD01224FF48061214801F071FD47
:10093C0001224FF400611E4801F06BFD01224FF4BF
:10094C0080511B4801F065FD01224FF400511848FD
:10095C0001F05FFD57E07B68082B2BD10022802132
:10096C00134801F056FD00224FF48071104801F03D
:10097C0050FD00224FF400710D4801F04AFD002299
:10098C004FF480610A4801F044FD00224FF40061ED
:10099C00074801F03EFD00224FF48051044801F05D
:1009AC0038FD00224FF40051014801F032FD2AE0DD
:1009BC00000C014000228021154801F02AFD002284
:1009CC004FF48071124801F024FD00224FF40071A5
:1009DC000F4801F01EFD00224FF480610C4801F01D
:1009EC0018FD01224FF40061094801F012FD0022AC
:1009FC004FF48051064801F00CFD00224FF40051D9
:100A0C00034801F006FD00BF0837BD4680BD00BF9E
:100A1C00000C014080B500AFAA4B1B68212B00F0E5
:100A2C00EC80212B00F34481202B00F08B80202BB9
:100A3C0000F33E81002B02D01F2B27D038E101227E
:100A4C004021A14801F0E5FC012280219E4801F0E3
:100A5C00E0FC01224FF480719B4801F0DAFC994BC9
:100A6C001F221A6041F2883000F08CFF4FF47A702C
:100A7C0000F06CFF642000F04DFF944B04221A60D0
:100A8C00924B1B68184601F023F918E10022402113
:100A9C008D4801F0BEFC012280218B4801F0B9FC8D
:100AAC0001224FF48071884801F0B3FC884B1B681D
:100ABC00012B15D1834B21221A6040F6B83000F07F
:100ACC0061FF4FF47A7000F041FF642000F022FFC8
:100ADC007E4B02221A607D4B1B68184601F0F8F819
:100AEC007C4B1B68002B14DD4FF47A7000F02EFF4A
:100AFC00764B1B68013B754A1360744B1B68002BCB
:100B0C0002DA724B00221A60704B1B68184601F017
:100B1C00DFF8714B1B68002B40F3CC804FF4FA705C
:100B2C0000F0F8FE6D4B1B68012B02DD6B4B0022B5
:100B3C001A606A4B1B685A1C68490A60184601F017
:100B4C000DF9B7E0012240215F4801F062FC002260
:100B5C0080215D4801F05DFC01224FF480715A4800
:100B6C0001F057FC5A4B1B68012B15D1554B1F221A
:100B7C001A6041F2883000F005FF4FF47A7000F0F3
:100B8C00E5FE642000F0C6FE504B04221A604F4B69
:100B9C001B68184601F09CF84E4B1B68002B14DDAB
:100BAC004FF47A7000F0D2FE484B1B68013B474A69
:100BBC001360464B1B68002B02DA444B00221A6070
:100BCC00424B1B68184601F083F8434B1B68002B03
:100BDC0072DD4FF4FA7000F09DFE404B1B68012B48
:100BEC0002DD3E4B00221A603C4B1B685A1C3B49F1
:100BFC000A60184601F0B2F85EE00122402132484A
:100C0C0001F007FC012280212F4801F002FC002298
:100C1C004FF480712C4801F0FCFB2D4B1B68012B11
:100C2C0015D1284B20221A604FF4FA6000F0AAFE6E
:100C3C004FF47A7000F08AFE642000F06BFE234BB8
:100C4C0001221A60214B1B68184601F041F8214B18
:100C5C001B68002B14DD4FF47A7000F077FE1B4BF1
:100C6C001B68013B194A1360184B1B68002B02DAF6
:100C7C00164B00221A60154B1B68184601F028F819
:100C8C00154B1B68002B19DD4FF4FA7000F042FE77
:100C9C00124B1B68012B02DD104B00221A600F4B0C
:100CAC001B685A1C0D490A60184601F057F805E0FC
:100CBC0000BF04E000BF02E000BF00E000BF00BFC7
:100CCC0080BD00BF8C00002000080140880000207F
:100CDC00A0000020A8000020B000002094000020FC
:100CEC0080B500AFAE4B1B68212B00F0F280212B9E
:100CFC0000F34C81202B00F08F80202B00F34681D9
:100D0C00002B02D01F2B29D040E101224FF400719F
:100D1C00A44801F07EFB01224FF48061A14801F050
:100D2C0078FB01224FF400619E4801F072FB9C4B52
:100D3C0021221A6040F6B83000F0D0FD4FF47A70E2
:100D4C0000F0B0FD642000F091FD974B03221A6077
:100D5C00954B1B68184600F08DFF1EE100224FF4E6
:100D6C000071904801F055FB01224FF480618D48D1
:100D7C0001F04FFB01224FF400618A4801F049FB5E
:100D8C008A4B1B68002B15DD854B21221A6040F61F
:100D9C00B83000F0A3FD4FF47A7000F083FD6420AE
:100DAC0000F064FD804B03221A607F4B1B681846D1
:100DBC0000F060FF7E4B1B68002B14DD4FF47A7043
:100DCC0000F070FD784B1B68013B774A1360764B43
:100DDC001B68002B02DA744B00221A60724B1B68E2
:100DEC00184600F047FF734B1B68002B40F3D08074
:100DFC004FF4FA7000F03AFD6F4B1B68012B02DDCB
:100E0C006D4B00221A606C4B1B685A1C6A490A60B5
:100E1C00184600F06FFFBBE001224FF400716148EF
:100E2C0001F0F7FA00224FF480615E4801F0F1FA0C
:100E3C0001224FF400615B4801F0EBFA5B4B1B683D
:100E4C00012B15D1564B1F221A6041F2883000F04D
:100E5C0045FD4FF47A7000F025FD642000F006FD8E
:100E6C00514B05221A60504B1B68184600F002FFCC
:100E7C004F4B1B68002B14DD4FF47A7000F012FD01
:100E8C00494B1B68013B484A1360474B1B68002BBE
:100E9C0002DA454B00221A60434B1B68184600F0DF
:100EAC00E9FE444B1B68002B74DD4FF4FA7000F024
:100EBC00DDFC414B1B68012B02DD3F4B00221A600D
:100ECC003D4B1B685A1C3C490A60184600F012FF47
:100EDC0060E001224FF40071324801F09AFA0122CD
:100EEC004FF480612F4801F094FA00224FF4006116
:100EFC002C4801F08EFA2D4B1B68012B15D1284B79
:100F0C0020221A604FF4FA6000F0E8FC4FF47A707B
:100F1C0000F0C8FC642000F0A9FC234B02221A60EC
:100F2C00214B1B68184600F0A5FE214B1B68002BBB
:100F3C0014DD4FF47A7000F0B5FC1B4B1B68013BC1
:100F4C00194A1360184B1B68002B02DA164B00224F
:100F5C001A60154B1B68184600F08CFE154B1B686D
:100F6C00002B19DD4FF4FA7000F080FC124B1B685B
:100F7C00012B02DD104B00221A600F4B1B685A1C10
:100F8C000D490A60184600F0B5FE05E000BF04E00C
:100F9C0000BF02E000BF00E000BF00BF80BD00BF8B
:100FAC00900000200008014080000020B8000020C4
:100FBC00C0000020C80000207C00002080B500AFDD
:100FCC0000F026FF00F02AF800F0B0F800F062F80C
:100FDC00104801F087FE4FF47A7000F0D3FC4FF408
:100FEC00FA7000F0B3FC002202210B4801F011FA58
:100FFC0000220421084801F00CFA002208210648BE
:10100C0001F007FA00221021034801F002FA00F067
:10101C0025F9FCE7FC0000200008014080B590B0E9
:10102C0000AF07F1180328220021184602F012FA2B
:10103C003B1D00221A605A609A60DA601A61022322
:10104C00BB610123BB621023FB6200237B6307F1AE
:10105C001803184601F00EFA0346002B01D000F0DD
:10106C00EFF80F237B600023BB600023FB600023A1
:10107C003B6100237B613B1D0021184601F07AFC8B
:10108C000346002B01D000F0DBF800BF4037BD4613
:10109C0080BD000080B586B000AF07F108030022C8
:1010AC001A605A609A60DA603B4600221A605A60F5
:1010BC001D4B4FF080421A601B4B41F63F725A6039
:1010CC00194B00229A60184B0922DA60164B002249
:1010DC001A61154B00229A61134801F0B3FD0346C7
:1010EC00002B01D000F0ACF84FF48053BB6007F13B
:1010FC00080319460C4801F049FF0346002B01D0A8
:10110C0000F09EF800233B6000237B603B461946B1
:10111C00054802F011F90346002B01D000F090F8BD
:10112C0000BF1837BD4680BDFC00002080B588B0DC
:10113C0000AF07F1100300221A605A609A60DA605F
:10114C00354B9B69344A43F010039361324B9B69D6
:10115C0003F01003FB60FB682F4B9B692E4A43F096
:10116C00040393612C4B9B6903F00403BB60BB68C5
:10117C00294B9B69284A43F008039361264B9B69D2
:10118C0003F008037B607B68002240F6FE71234865
:10119C0001F03FF9002243F6FF71214801F039F9C3
:1011AC004FF4C0433B6100237B610123BB6107F11A
:1011BC00100319461B4800F09BFF40F6FE733B6181
:1011CC0001237B610023BB610223FB6107F1100348
:1011DC001946124800F08CFF43F6FF733B61012364
:1011EC007B610023BB610223FB6107F110031946ED
:1011FC000B4800F07DFF4FF400433B6100237B6103
:10120C000123BB6107F110031946054800F070FF7C
:10121C0000BF2037BD4680BD0010024000080140D1
:10122C00000C01400010014080B582B000AF786026
:10123C0000F0C4FBFEF7BEFF00BF0837BD4680BD03
:10124C0080B400AF72B600BFFEE780B500AFFFF709
:10125C00E1FBFFF745FD00BF80BD000080B500AF8E
:10126C00934B1B68032B00F28C8201A252F823F0E3
:10127C008D12000827130008E91400087F160008D7
:10128C00FFF7E3FF0020FEF75BFF0346002B00F0A7
:10129C007A82874B01221A60864B00221A60864B99
:1012AC0001221A60854B00221A60854B00221A60BD
:1012BC004FF4FA7000F0BEFA4FF4FA7000F082FAB4
:1012CC007C4B1B68184600F0D5FC794B1B68184604
:1012DC0000F0FEFC002240217A4801F09AF800222E
:1012EC004FF40071774801F094F801228021754881
:1012FC0001F08FF801224FF48061724801F089F8F7
:10130C0001224FF480716F4801F083F801224FF4F1
:10131C0000616C4801F07DF835E26B4B1B68002BCB
:10132C0021DD4FF4FA7000F04DFA644B1B68012B71
:10133C0002DD624B00221A60604B1B685A1C5F492D
:10134C000A60184600F00AFD5D4B1B68012B02DD9C
:10135C005B4B00221A605A4B1B685A1C58490A6096
:10136C00184600F0C7FC594B1B68002B0DDD4FF4E1
:10137C007A7000F043FA504B1B68013B4E4A1360E5
:10138C004D4B1B68184600F075FC514B1B68002B2D
:10139C000CDD4FF4FA7000F04DFA4021494801F091
:1013AC0050F84FF40071474801F04BF80120FEF75C
:1013BC00C7FE0346002B10D03E4B1B6801333D4A41
:1013CC0013603C4B1B68632B02DD3A4B00221A6006
:1013DC00384B1B68184600F04DFC0220FEF7B0FE9F
:1013EC000346002B07D0334B1B68334A13604FF472
:1013FC007A7000F003FA0020FEF7A2FE0346002BE1
:10140C0042D02B4B02221A602A4B00221A602A4B24
:10141C0001221A60294B00221A60294B00221A6003
:10142C004FF4FA7000F006FA4FF4FA7000F0CAF9B3
:10143C00204B1B68184600F01DFC1D4B1B68184602
:10144C0000F046FC012240211E4800F0E2FF012280
:10145C004FF400711B4800F0DCFF0022802119487A
:10146C0000F0D7FF00224FF48061164800F0D1FF46
:10147C0001224FF48071134800F0CBFF01224FF48E
:10148C000061104800F0C5FF0B4B1B68002B00F3EC
:10149C007C81074B00221A600E4B00221A600E4B07
:1014AC0000221A60024B1B68184600F011FC6CE11C
:1014BC008400002080000020880000209400002080
:1014CC009800002000080140E0000020D800002017
:1014DC00D00000208C00002090000020AE4B1B6838
:1014EC00002B21DD4FF4FA7000F06CF9AB4B1B684C
:1014FC00012B02DDA94B00221A60A84B1B685A1C59
:10150C00A6490A60184600F029FCA54B1B68012B64
:10151C0002DDA34B00221A60A14B1B685A1CA04988
:10152C000A60184600F0E6FB9E4B1B68002B0DDD95
:10153C004FF47A7000F062F99B4B1B68013B9A4A9E
:10154C001360994B1B68184600F094FB974B1B6873
:10155C00002B0CDD4FF4FA7000F06CF980219448EC
:10156C0000F06FFF4FF48061914800F06AFF01209A
:10157C00FEF7E6FD0346002B10D08E4B1B680133A3
:10158C008C4A13608B4B1B68632B02DD894B00224A
:10159C001A60884B1B68184600F06CFB0220FEF7A3
:1015AC00CFFD0346002B07D0824B1B687E4A13608D
:1015BC004FF47A7000F022F90020FEF7C1FD0346CB
:1015CC00002B42D07C4B03221A607A4B00221A600B
:1015DC00754B01221A60714B00221A60704B00226D
:1015EC001A604FF4FA7000F025F94FF4FA7000F01D
:1015FC00E9F8704B1B68184600F03CFB6E4B1B68FF
:10160C00184600F065FB01224021694800F001FFFB
:10161C0001224FF40071664800F0FBFE012280218C
:10162C00634800F0F6FE01224FF48061604800F040
:10163C00F0FE00224FF480715D4800F0EAFE0022BB
:10164C004FF400615A4800F0E4FE574B1B68002B26
:10165C0000F39D80584B00221A60584B00221A60F0
:10166C00574B00221A60544B1B68184600F030FB95
:10167C008DE0494B1B68002B21DD4FF4FA7000F014
:10168C00A1F8464B1B68012B02DD444B00221A606B
:10169C00424B1B685A1C41490A60184600F05EFB1D
:1016AC003F4B1B68012B02DD3D4B00221A603C4B6B
:1016BC001B685A1C3A490A60184600F01BFB394B50
:1016CC001B68002B0DDD4FF47A7000F097F8364B49
:1016DC001B68013B344A1360334B1B68184600F0FF
:1016EC00C9FA324B1B68002B0DDD4FF4FA7000F079
:1016FC00A1F84FF480712E4800F0A3FE4FF4006166
:10170C002B4800F09EFE0120FEF71AFD0346002B2D
:10171C0010D0284B1B680133264A1360254B1B68DD
:10172C00632B02DD234B00221A60224B1B681846E8
:10173C0000F0A0FA0220FEF703FD0346002B07D0B1
:10174C001C4B1B68184A13604FF47A7000F056F863
:10175C000020FEF7F5FC0346002B03D1124B1B684F
:10176C00002B16DC144B00221A60144B00221A605A
:10177C00134B00221A60104B1B68184600F0A8FA95
:10178C0007E000BF06E000BF04E000BF02E000BFBE
:10179C0000E000BF00BF80BDE000002094000020EE
:1017AC0098000020D800002088000020D0000020E5
:1017BC000008014080000020840000208C000020E4
:1017CC009000002080B483B000AF78607B68084A3A
:1017DC0082FB03129210DB17D31A064A1360064BD6
:1017EC0000221A6000BF0C37BD4680BC704700BF9A
:1017FC0067666666DC000020E000002080B483B0E1
:10180C0000AF78607B68084A82FB03129210DB17EA
:10181C00D31A064A1360064B00221A6000BF0C371D
:10182C00BD4680BC704700BF67666666D40000206A
:10183C00D800002080B483B000AF78607B68084A81
:10184C0082FB03129210DB17D31A064A1360064B65
:10185C0000221A6000BF0C37BD4680BC704700BF29
:10186C0067666666CC000020D000002080B483B090
:10187C0000AF78607B68084A82FB03129210DB177A
:10188C00D31A064A1360064B00221A6000BF0C37AD
:10189C00BD4680BC704700BF67666666C40000200A
:1018AC00C800002080B483B000AF78607B68084A21
:1018BC0082FB03129210DB17D31A064A1360064BF5
:1018CC0000221A6000BF0C37BD4680BC704700BFB9
:1018DC0067666666BC000020C000002080B483B040
:1018EC0000AF78607B68084A82FB03129210DB170A
:1018FC00D31A064A1360064B00221A6000BF0C373D
:10190C00BD4680BC704700BF67666666B4000020A9
:10191C00B800002080B483B000AF78607B68084AC0
:10192C0082FB03129210DB17D31A064A1360064B84
:10193C0000221A6000BF0C37BD4680BC704700BF48
:10194C0067666666AC000020B000002080B483B0EF
:10195C0000AF78607B68084A82FB03129210DB1799
:10196C00D31A064A1360064B00221A6000BF0C37CC
:10197C00BD4680BC704700BF67666666A400002049
:10198C00A800002080B483B000AF78607B68084A60
:10199C0082FB03129210DB17D31A064A1360064B14
:1019AC0000221A6000BF0C37BD4680BC704700BFD8
:1019BC00676666669C000020A000002080B400AF23
:1019CC00514B1B68002B0BDD4F4B1B68013B4E4AE8
:1019DC0013604D4B1B68002B02D14C4B01221A603B
:1019EC004B4B1B68002B0BDD494B1B68013B484ADA
:1019FC001360474B1B68002B02D1464B01221A6027
:101A0C00454B1B68002B0BDD434B1B68013B424ACB
:101A1C001360414B1B68002B02D1404B01221A6012
:101A2C003F4B1B68002B0BDD3D4B1B68013B3C4ABD
:101A3C0013603B4B1B68002B02D13A4B01221A60FE
:101A4C00394B1B68002B0BDD374B1B68013B364AAF
:101A5C001360354B1B68002B02D1344B01221A60EA
:101A6C00334B1B68002B0BDD314B1B68013B304AA1
:101A7C0013602F4B1B68002B02D12E4B01221A60D6
:101A8C002D4B1B68002B0BDD2B4B1B68013B2A4A93
:101A9C001360294B1B68002B02D1284B01221A60C2
:101AAC00274B1B68002B0BDD254B1B68013B244A85
:101ABC001360234B1B68002B02D1224B01221A60AE
:101ACC00214B1B68002B0BDD1F4B1B68013B1E4A77
:101ADC0013601D4B1B68002B02D11C4B01221A609A
:101AEC001B4B1B68002B0BDD194B1B68013B184A69
:101AFC001360174B1B68002B02D1164B01221A6086
:101B0C0000BFBD4680BC70479C000020A000002098
:101B1C00A4000020A8000020AC000020B000002091
:101B2C00B4000020B8000020BC000020C000002041
:101B3C00C4000020C8000020CC000020D0000020F1
:101B4C00E4000020E8000020DC000020E000002081
:101B5C00D4000020D800002080B485B000AF154B15
:101B6C009B69144A43F001039361124B9B6903F088
:101B7C000103BB60BB680F4BDB690E4A43F080531B
:101B8C00D3610C4BDB6903F080537B607B680A4BA1
:101B9C005B68FB60FB6823F0E063FB60FB6843F071
:101BAC008063FB60044AFB68536000BF1437BD467A
:101BBC0080BC7047001002400000014080B584B02A
:101BCC0000AF78607B681B68B3F1804F13D10C4B6E
:101BDC00DB690B4A43F00103D361094BDB6903F06A
:101BEC000103FB60FB68002200211C2000F049FA75
:101BFC001C2000F062FA00BF1037BD4680BD00BF4C
:101C0C000010024080B400AFFEE780B400AFFEE7E6
:101C1C0080B400AFFEE780B400AFFEE780B400AF45
:101C2C00FEE780B400AF00BFBD4680BC704780B4F7
:101C3C0000AF00BFBD4680BC704780B400AF00BF92
:101C4C00BD4680BC704780B500AF00F027F900BFDF
:101C5C0080BD000080B500AF024801F08FF800BFD6
:101C6C0080BD00BFFC00002080B400AF00BFBD46AB
:101C7C0080BC704780B483B000AF78607B68092B60
:101C8C0006DC114B00221A600F4A7B68536016E089
:101C9C007B680E4A82FB03129210DB17D31A0A4A96
:101CAC0013607968094B83FB01239A10CB17D21A66
:101CBC0013469B0013445B00CA1A034B5A6000BFC7
:101CCC000C37BD4680BC7047EC000020676666662A
:101CDC0080B483B000AF7860054B00221A607B683B
:101CEC000133034A536000BF0C37BD4680BC7047BC
:101CFC00F400002080B582B000AF78607B68002BC8
:101D0C0003D07B68012B10D01EE0124B1B681846C9
:101D1C00FEF7B0FC002208210F4800F07AFB0122EC
:101D2C0010210D4800F075FB0FE00A4B5B6818465C
:101D3C00FEF7A0FC01220821074800F06AFB0022F4
:101D4C001021054800F065FB00BF00BF0837BD46F9
:101D5C0080BD00BFEC0000200008014080B582B0BF
:101D6C0000AF78607B68002B03D07B68012B10D010
:101D7C001EE0124B1B681846FEF7EAFA00220221FD
:101D8C000F4800F046FB012204210D4800F041FBF6
:101D9C000FE00A4B5B681846FEF7DAFA01220221C3
:101DAC00074800F036FB00220421054800F031FB07
:101DBC0000BF00BF0837BD4680BD00BFF400002047
:101DCC00000801400C480D490D4A002302E0D4588C
:101DDC00C4500433C4188C42F9D30A4A0A4C002369
:101DEC0001E013600432A242FBD3FFF73DFF01F088
:101DFC000DFBFFF7E3F87047000000203C000020CB
:101E0C00B03400083C00002048010020FEE7000030
:101E1C0080B500AF084B1B68074A43F010031360F2
:101E2C00032000F023F90F2000F008F8FFF794FED0
:101E3C000023184680BD00BF0020024080B582B050
:101E4C0000AF7860124B1A68124B1B7819464FF48E
:101E5C007A73B3FBF1F3B2FBF3F3184600F03BF9E2
:101E6C000346002B01D001230EE07B680F2B0AD810
:101E7C00002279684FF0FF3000F003F9064A7B68C6
:101E8C001360002300E0012318460837BD4680BDCF
:101E9C0030000020380000203400002080B400AF57
:101EAC00054B1B781A46054B1B681344034A1360F9
:101EBC0000BFBD4680BC70473800002044010020A4
:101ECC0080B400AF024B1B681846BD4680BC7047FF
:101EDC004401002080B485B000AF78607B6803F0CB
:101EEC000703FB600C4BDB68BB60BA684FF6FF0363
:101EFC001340BB60FB681A02BB68134343F0BF631B
:101F0C0043F40033BB60044ABB68D36000BF143792
:101F1C00BD4680BC704700BF00ED00E080B400AF50
:101F2C00044BDB681B0A03F007031846BD4680BC54
:101F3C00704700BF00ED00E080B483B000AF0346F3
:101F4C00FB7197F90730002B0BDBFB7903F01F02B9
:101F5C00064997F907305B09012000FA02F241F8B3
:101F6C00232000BF0C37BD4680BC704700E100E069
:101F7C0080B483B000AF03463960FB7197F907302A
:101F8C00002B0ADB3B68DAB20C4997F907301201D7
:101F9C00D2B20B4483F800230AE03B68DAB208495A
:101FAC00FB7903F00F03043B1201D2B20B441A76F7
:101FBC0000BF0C37BD4680BC704700BF00E100E09D
:101FCC0000ED00E080B489B000AFF860B9607A60D1
:101FDC00FB6803F00703FB61FB69C3F10703042BE8
:101FEC0028BF0423BB61FB690433062B02D9FB69B0
:101FFC00033B00E000237B614FF0FF32BB6902FA28
:10200C0003F3DA43BB681A407B699A404FF0FF3107
:10201C007B6901FA03F3D9437B680B4013431846E1
:10202C002437BD4680BC704780B582B000AF786065
:10203C007B68013BB3F1807F01D301230FE00A4A97
:10204C007B68013B53600F214FF0FF30FFF790FF8F
:10205C00054B00229A60044B07221A600023184695
:10206C000837BD4680BD00BF10E000E080B582B0EF
:10207C0000AF78607868FFF72DFF00BF0837BD46CA
:10208C0080BD80B586B000AF0346B9607A60FB7343
:10209C0000237B61FFF742FF78617A68B968786941
:1020AC00FFF790FF024697F90F3011461846FFF7DD
:1020BC005FFF00BF1837BD4680BD80B582B000AF52
:1020CC000346FB7197F907301846FFF735FF00BF41
:1020DC000837BD4680BD80B582B000AF78607868A7
:1020EC00FFF7A2FF034618460837BD4680BD000027
:1020FC0080B48BB000AF7860396000237B62002322
:10210C003B6248E101227B6A02FA03F3FB613B6804
:10211C001B68FA691340BB61BA69FB699A4240F0CB
:10212C0037813B685B68A34A93425ED0A14A9342D5
:10213C0075D8A14A934258D09F4A93426FD89F4A70
:10214C00934252D09D4A934269D89D4A93424CD0B7
:10215C009B4A934263D89B4A934246D0994A9342F6
:10216C005DD8122B2AD8122B59D801A252F823F081
:10217C00F7210008D1210008E321000825220008DE
:10218C002B2200082B2200082B2200082B220008EF
:10219C002B2200082B2200082B2200082B220008DF
:1021AC002B2200082B2200082B2200082B220008CF
:1021BC002B220008D9210008ED210008824A934205
:1021CC0013D02CE03B68DB683B6229E03B68DB68A2
:1021DC0004333B6224E03B68DB6808333B621FE05E
:1021EC003B68DB680C333B621AE03B689B68002B56
:1021FC0002D104233B6213E03B689B68012B05D1A1
:10220C0008233B627B68FA691A6109E008233B6288
:10221C007B68FA695A6103E000233B6200E000BF6F
:10222C00BB69FF2B01D87B6801E07B6804337B61C1
:10223C00BB69FF2B02D87B6A9B0002E07B6A083BE0
:10224C009B003B617B691A680F213B6901FA03F320
:10225C00DB431A40396A3B6901FA03F31A437B6981
:10226C001A603B685B6803F08053002B00F0908091
:10227C00564B9B69554A43F001039361534B9B6941
:10228C0003F00103BB60BB68514A7B6A9B080233B5
:10229C0052F82330FB607B6A03F003039B000F2290
:1022AC0002FA03F3DB43FA681340FB607B68494A8C
:1022BC0093420DD07B68484A934207D07B68474ACB
:1022CC00934201D1022304E0032302E0012300E046
:1022DC0000237A6A02F0030292009340FA681343D7
:1022EC00FB603B497B6A9B080233FA6841F8232068
:1022FC003B685B6803F48033002B06D0384B1A68BC
:10230C003749BB6913430B6006E0354B1A68BB6950
:10231C00DB43334913400B603B685B6803F40033C9
:10232C00002B06D02E4B5A682D49BB6913434B60CA
:10233C0006E02B4B5A68BB69DB43294913404B60C1
:10234C003B685B6803F48013002B06D0244B9A681F
:10235C002349BB6913438B6006E0214B9A68BB6928
:10236C00DB431F4913408B603B685B6803F400132D
:10237C00002B06D01A4BDA681949BB691343CB60A2
:10238C0006E0174BDA68BB69DB4315491340CB6099
:10239C007B6A01337B623B681A687B6A22FA03F31F
:1023AC00002B7FF4AFAE00BF00BF2C37BD4680BC06
:1023BC00704700BF000032100000311000002210E6
:1023CC00000021100000121000001110001002403B
:1023DC000000014000080140000C014000100140C9
:1023EC000004014080B485B000AF78600B467B8060
:1023FC007B689A687B881340002B02D00123FB7307
:10240C0001E00023FB73FB7B18461437BD4680BCF0
:10241C00704780B483B000AF78600B467B80134666
:10242C007B707B78002B03D07A887B681A6103E081
:10243C007B881A047B681A6100BF0C37BD4680BCD0
:10244C00704780B485B000AF78600B467B807B68AA
:10245C00DB68FB607A88FB6813401A04FB68D9437D
:10246C007B880B401A437B681A6100BF1437BD464A
:10247C0080BC704780B586B000AF78607B68002B5D
:10248C0001D101236CE27B681B6803F00103002B74
:10249C0000F08780924B5B6803F00C03042B0CD08C
:1024AC008F4B5B6803F00C03082B12D18C4B5B68D1
:1024BC0003F48033B3F5803F0BD1894B1B6803F4D5
:1024CC000033002B6CD07B685B68002B68D1012338
:1024DC0046E27B685B68B3F5803F06D1804B1B6896
:1024EC007F4A43F4803313602EE07B685B68002BDB
:1024FC000CD17B4B1B687A4A23F480331360784BE6
:10250C001B68774A23F4802313601DE07B685B68AB
:10251C00B3F5A02F0CD1724B1B68714A43F4802386
:10252C0013606F4B1B686E4A43F4803313600BE0EF
:10253C006B4B1B686A4A23F480331360684B1B682F
:10254C00674A23F4802313607B685B68002B13D0ED
:10255C00FFF7B6FC386108E0FFF7B2FC02463B69B6
:10256C00D31A642B01D90323FAE15D4B1B6803F4E6
:10257C000033002BF0D014E0FFF7A2FC386108E028
:10258C00FFF79EFC02463B69D31A642B01D9032347
:10259C00E6E1534B1B6803F40033002BF0D100E051
:1025AC0000BF7B681B6803F00203002B63D04C4B0D
:1025BC005B6803F00C03002B0BD0494B5B6803F0FA
:1025CC000C03082B1CD1464B5B6803F48033002BA7
:1025DC0016D1434B1B6803F00203002B05D07B681C
:1025EC001B69012B01D00123BAE13D4B1B6823F081
:1025FC00F8027B685B69DB00394913430B603AE0F6
:10260C007B681B69002B20D0364B01221A60FFF728
:10261C0057FC386108E0FFF753FC02463B69D31ABC
:10262C00022B01D903239BE12D4B1B6803F0020302
:10263C00002BF0D02A4B1B6823F0F8027B685B69F7
:10264C00DB00274913430B6015E0264B00221A6070
:10265C00FFF736FC386108E0FFF732FC02463B69B5
:10266C00D31A022B01D903237AE11D4B1B6803F00B
:10267C000203002BF0D17B681B6803F00803002BCE
:10268C003AD07B689B69002B19D0174B01221A603A
:10269C00FFF716FC386108E0FFF712FC02463B69B5
:1026AC00D31A022B01D903235AE10D4B5B6A03F0B9
:1026BC000203002BF0D0012000F0A6FA1CE00A4B1C
:1026CC0000221A60FFF7FCFB38610FE0FFF7F8FB04
:1026DC0002463B69D31A022B08D9032340E100BF01
:1026EC000010024000004242800442429E4B5B6A52
:1026FC0003F00203002BE9D17B681B6803F0040391
:10270C00002B00F0A6800023FB75974BDB6903F0D0
:10271C008053002B0DD1944BDB69934A43F08053CB
:10272C00D361914BDB6903F08053BB60BB68012321
:10273C00FB758E4B1B6803F48073002B18D18B4BED
:10274C001B688A4A43F480731360FFF7B9FB386146
:10275C0008E0FFF7B5FB02463B69D31A642B01D99D
:10276C000323FDE0814B1B6803F48073002BF0D036
:10277C007B68DB68012B06D17B4B1B6A7A4A43F0E2
:10278C00010313622DE07B68DB68002B0CD1764BC8
:10279C001B6A754A23F001031362734B1B6A724A5E
:1027AC0023F0040313621CE07B68DB68052B0CD15F
:1027BC006D4B1B6A6C4A43F0040313626A4B1B6A31
:1027CC00694A43F0010313620BE0674B1B6A664ACC
:1027DC0023F001031362644B1B6A634A23F0040366
:1027EC0013627B68DB68002B15D0FFF769FB38613F
:1027FC000AE0FFF765FB02463B69D31A41F28832C7
:10280C00934201D90323ABE0574B1B6A03F002033D
:10281C00002BEED014E0FFF753FB38610AE0FFF712
:10282C004FFB02463B69D31A41F28832934201D9DD
:10283C00032395E04C4B1B6A03F00203002BEED1F3
:10284C00FB7D012B05D1484BDB69474A23F08053B4
:10285C00D3617B68DB69002B00F08180424B5B68A5
:10286C0003F00C03082B61D07B68DB69022B46D18B
:10287C003F4B00221A60FFF723FB386108E0FFF79B
:10288C001FFB02463B69D31A022B01D9032367E0D5
:10289C00354B1B6803F00073002BF0D17B681B6A6F
:1028AC00B3F5803F08D1304B5B6823F400327B6872
:1028BC009B682D4913434B602B4B5B6823F47412BC
:1028CC007B68196A7B685B6A0B43274913434B602F
:1028DC00274B01221A60FFF7F3FA386108E0FFF783
:1028EC00EFFA02463B69D31A022B01D9032337E0D6
:1028FC001D4B1B6803F00073002BF0D02FE01C4B1A
:10290C0000221A60FFF7DCFA386108E0FFF7D8FA0A
:10291C0002463B69D31A022B01D9032320E0124B48
:10292C001B6803F00073002BF0D118E07B68DB69A7
:10293C00012B01D1012313E00B4B5B68FB60FB689F
:10294C0003F480327B681B6A9A4206D1FB6803F45D
:10295C0070127B685B6A9A4201D0012300E000236D
:10296C0018461837BD4680BD00100240007000406C
:10297C006000424280B584B000AF786039607B68FB
:10298C00002B01D10123D0E06A4B1B6803F0070335
:10299C003A689A4210D9674B1B6823F007026549C5
:1029AC003B6813430B60634B1B6803F007033A68E7
:1029BC009A4201D00123B8E07B681B6803F0020344
:1029CC00002B20D07B681B6803F00403002B05D080
:1029DC00594B5B68584A43F4E06353607B681B684F
:1029EC0003F00803002B05D0534B5B68524A43F4A9
:1029FC0060535360504B5B6823F0F0027B689B681C
:102A0C004D4913434B607B681B6803F00103002B9B
:102A1C0040D07B685B68012B07D1474B1B6803F4E4
:102A2C000033002B15D101237FE07B685B68022B00
:102A3C0007D1414B1B6803F00073002B09D1012314
:102A4C0073E03D4B1B6803F00203002B01D1012303
:102A5C006BE0394B5B6823F003027B685B6836499B
:102A6C0013434B60FFF72CFAF8600AE0FFF728FAE3
:102A7C000246FB68D31A41F28832934201D90323F0
:102A8C0053E02D4B5B6803F00C027B685B689B008A
:102A9C009A42EBD1274B1B6803F007033A689A4222
:102AAC0010D2244B1B6823F0070222493B681343C6
:102ABC000B60204B1B6803F007033A689A4201D065
:102ACC00012332E07B681B6803F00403002B08D061
:102ADC00194B5B6823F4E0627B68DB68164913438F
:102AEC004B607B681B6803F00803002B09D0124B6A
:102AFC005B6823F460527B681B69DB000E4913434F
:102B0C004B6000F021F802460B4B5B681B0903F08D
:102B1C000F030A49CB5C22FA03F3094A1360094BF1
:102B2C001B681846FFF78AF9002318461037BD4674
:102B3C0080BD00BF00200240001002409834000805
:102B4C00300000203400002090B48AB000AF2A4B33
:102B5C003C1D0FCB84E80F0040F201233B80002387
:102B6C00FB610023BB6100237B6200237B6100239C
:102B7C003B62224B5B68FB61FB6903F00C03042B8B
:102B8C0002D0082B03D02DE01D4B3B622DE0FB69DE
:102B9C009B0C03F00F0307F12802134413F8243C99
:102BAC007B61FB6903F48033002B13D0134B5B6800
:102BBC005B0C03F0010307F12802134413F8283CC3
:102BCC00BB617B690E4A02FB03F2BB69B2FBF3F3F8
:102BDC007B6204E07B690B4A02FB03F37B627B6A3A
:102BEC003B6202E0064B3B6200BF3B6A184628374B
:102BFC00BD4690BC704700BF8834000800100240EE
:102C0C0000127A0000093D0080B485B000AF7860F6
:102C1C000A4B1B680A4AA2FB03235B0A7A6802FB75
:102C2C0003F3FB6000BFFB685A1EFA60002BF9D15E
:102C3C0000BF00BF1437BD4680BC70473000002079
:102C4C00D34D621080B582B000AF78607B68002BEA
:102C5C0001D1012341E07B6893F83D30DBB2002BBE
:102C6C0006D17B68002283F83C207868FEF7A6FF2B
:102C7C007B68022283F83D207B681A687B680433EA
:102C8C001946104600F06AFA7B68012283F8462048
:102C9C007B68012283F83E207B68012283F83F2069
:102CAC007B68012283F840207B68012283F8412055
:102CBC007B68012283F842207B68012283F8432041
:102CCC007B68012283F844207B68012283F845202D
:102CDC007B68012283F83D20002318460837BD4647
:102CEC0080BD000080B485B000AF78607B6893F83D
:102CFC003D30DBB2012B01D0012335E07B68022291
:102D0C0083F83D207B681B68DA687B681B6842F09F
:102D1C000102DA607B681B68164A934209D07B6813
:102D2C001B68B3F1804F04D07B681B68124A934236
:102D3C0011D17B681B689B6803F00703FB60FB6881
:102D4C00062B10D07B681B681A687B681B6842F0E6
:102D5C0001021A6007E07B681B681A687B681B68B5
:102D6C0042F001021A60002318461437BD4680BC9D
:102D7C00704700BF002C01400004004080B582B0B9
:102D8C0000AF78607B681B681B6903F00203022BA1
:102D9C0022D17B681B68DB6803F00203022B1BD17A
:102DAC007B681B686FF002021A617B6801221A773C
:102DBC007B681B689B6903F00303002B03D07868C6
:102DCC0000F0B1F905E0786800F0A4F9786800F03B
:102DDC00B3F97B6800221A777B681B681B6903F0C8
:102DEC000403042B22D17B681B68DB6803F004030B
:102DFC00042B1BD17B681B686FF004021A617B6883
:102E0C0002221A777B681B689B6903F44073002BC2
:102E1C0003D0786800F087F905E0786800F07AF95B
:102E2C00786800F089F97B6800221A777B681B6848
:102E3C001B6903F00803082B22D17B681B68DB6835
:102E4C0003F00803082B1BD17B681B686FF008028A
:102E5C001A617B6804221A777B681B68DB6903F0B4
:102E6C000303002B03D0786800F05DF905E0786867
:102E7C0000F050F9786800F05FF97B6800221A774F
:102E8C007B681B681B6903F01003102B22D17B6835
:102E9C001B68DB6803F01003102B1BD17B681B68CD
:102EAC006FF010021A617B6808221A777B681B6826
:102EBC00DB6903F44073002B03D0786800F033F91E
:102ECC0005E0786800F026F9786800F035F97B6841
:102EDC0000221A777B681B681B6903F00103012B26
:102EEC000ED17B681B68DB6803F00103012B07D153
:102EFC007B681B686FF001021A617868FEF794F921
:102F0C007B681B681B6903F08003802B0ED17B68E8
:102F1C001B68DB6803F08003802B07D17B681B6880
:102F2C006FF080021A61786800F067FA7B681B68A2
:102F3C001B6903F04003402B0ED17B681B68DB68D8
:102F4C0003F04003402B07D17B681B686FF04002F5
:102F5C001A61786800F0F9F87B681B681B6903F04C
:102F6C002003202B0ED17B681B68DB6803F0200349
:102F7C00202B07D17B681B686FF020021A617868E0
:102F8C0000F032FA00BF0837BD4680BD80B584B072
:102F9C0000AF786039607B6893F83C30012B01D12D
:102FAC000223B3E07B68012283F83C207B68022279
:102FBC0083F83D207B681B689B68FB60FB6823F0F3
:102FCC007703FB60FB6823F47F43FB607B681B6823
:102FDC00FA689A603B681B68B3F5005F3ED0B3F5A6
:102FEC00005F00F28780B3F5805F00F08580B3F559
:102FFC00805F7FD8702B1AD0702B7BD8602B50D071
:10300C00602B77D8502B3CD0502B73D8402B58D0FA
:10301C00402B6FD8302B64D0302B6BD8202B60D04A
:10302C00202B67D8002B5CD0102B5AD062E07B6829
:10303C0018683B6899683B685A683B68DB6800F025
:10304C005CF97B681B689B68FB60FB6843F077034B
:10305C00FB607B681B68FA689A604EE07B681868B6
:10306C003B6899683B685A683B68DB6800F045F937
:10307C007B681B689A687B681B6842F480429A6084
:10308C003BE07B6818683B6859683B68DB681A460C
:10309C0000F0BCF87B681B685021184600F013F94F
:1030AC002BE07B6818683B6859683B68DB681A46FC
:1030BC0000F0DAF87B681B686021184600F003F911
:1030CC001BE07B6818683B6859683B68DB681A46EC
:1030DC0000F09CF87B681B684021184600F0F3F860
:1030EC000BE07B681A683B681B681946104600F0B9
:1030FC00EAF802E000BF00E000BF7B68012283F821
:10310C003D207B68002283F83C20002318461037B2
:10311C00BD4680BD80B483B000AF786000BF0C3773
:10312C00BD4680BC704780B483B000AF786000BFF0
:10313C000C37BD4680BC704780B483B000AF78605C
:10314C0000BF0C37BD4680BC704780B483B000AF65
:10315C00786000BF0C37BD4680BC704780B485B02A
:10316C0000AF786039607B681B68FB607B68254A20
:10317C00934207D07B68B3F1804F03D07B68224A1F
:10318C00934208D1FB6823F07003FB603B685B68DB
:10319C00FA681343FB607B681A4A934207D07B683A
:1031AC00B3F1804F03D07B68174A934208D1FB6878
:1031BC0023F44073FB603B68DB68FA681343FB60E5
:1031CC00FB6823F080023B685B691343FB607B6800
:1031DC00FA681A603B689A687B68DA623B681A681E
:1031EC007B689A627B68074A934203D13B681A69F1
:1031FC007B681A637B6801225A6100BF1437BD4695
:10320C0080BC7047002C01400004004080B487B0A3
:10321C0000AFF860B9607A60FB681B6A7B61FB6881
:10322C001B6A23F00102FB681A62FB689B693B6115
:10323C003B6923F0F0033B617B681B013A69134344
:10324C003B617B6923F00A037B617A69BB6813439A
:10325C007B61FB683A699A61FB687A691A6200BF04
:10326C001C37BD4680BC704780B487B000AFF86097
:10327C00B9607A60FB681B6A23F01002FB681A6263
:10328C00FB689B697B61FB681B6A3B617B6923F470
:10329C0070437B617B681B037A6913437B613B69D9
:1032AC0023F0A0033B61BB681B013A6913433B61EC
:1032BC00FB687A699A61FB683A691A6200BF1C372D
:1032CC00BD4680BC704780B485B000AF7860396073
:1032DC007B689B68FB60FB6823F07003FB603A68BB
:1032EC00FB68134343F00703FB607B68FA689A6042
:1032FC0000BF1437BD4680BC704780B487B000AFA8
:10330C00F860B9607A603B60FB689B687B617B69A5
:10331C0023F47F437B613B681A027B681A43BB68CA
:10332C0013437A6913437B61FB687A699A6000BF27
:10333C001C37BD4680BC704780B485B000AF786048
:10334C0039607B6893F83C30012B01D1022341E0BA
:10335C007B68012283F83C207B68022283F83D20A5
:10336C007B681B685B68FB607B681B689B68BB6049
:10337C00FB6823F07003FB603B681B68FA6813431F
:10338C00FB607B681B68FA685A607B681B68144A90
:10339C00934209D07B681B68B3F1804F04D07B68E3
:1033AC001B68104A93420CD1BB6823F08003BB60AE
:1033BC003B685B68BA681343BB607B681B68BA6880
:1033CC009A607B68012283F83D207B68002283F899
:1033DC003C20002318461437BD4680BC704700BF04
:1033EC00002C01400004004080B483B000AF786032
:1033FC0000BF0C37BD4680BC704780B483B000AFB3
:10340C00786000BF0C37BD4680BC704770B5002695
:10341C000C4D0D4C641BA410A64209D100F022F8EF
:10342C0000260A4D0A4C641BA410A64205D170BD9F
:10343C0055F8043B98470136EEE755F8043B98479E
:10344C000136F2E7A8340008A8340008A8340008B4
:10345C00AC34000803460244934200D1704703F891
:10346C00011BF9E7F8B500BFF8BC08BC9E467047D5
:0C347C00F8B500BFF8BC08BC9E467047C5
:1034880002030405060708090A0B0C0D0E0F10109D
:1034980000000000000000000102030406070809FC
:0434A80031010008E6
:0434AC000D01000806
:1034B0000100000001000000010000000100000008
:1034C00001000000010000000100000001000000F8
:1034D00001000000010000000100000001000000E8
:0C34E0000024F4001000000001000000B7
:0400000508001DD101
:00000001FF
